:020000040000FA
:10000000000086310F2EFF348A012000911C412808
:10001000031022000D0D2000BF003F08031D122811
:100020001030BF0021008E0122008D0120003F080A
:10003000103A031928283F08203A03192D283F08B1
:10004000403A031932283F08803A031937283B28E1
:100050002100300822008E003B28210031082200B8
:100060008E003B282100320822008E003B28210010
:10007000330822008E0020003F0822008D0020005F
:100080009110090020008B1322000D082000DE00D3
:1000900021000E082000DF0022008D01D830210051
:1000A0008E0003102100390D2000E000E101200046
:1000B0008E1F5C282000E10A20006008E200610831
:1000C000E00062042100B9000310390D2000E000B7
:1000D000E10120000E1E6E282000E10A20006008C9
:1000E000E2006108E00062042100B9000310390D4C
:1000F0002000E000E10120000E1F80282000E10A1E
:1001000020006008E2006108E00062042100B900FC
:100110000310390D2000E000E10120008E1D92281F
:100120002000E10A20006008E2006108E0006204AB
:100130002100B90020005E0822008D0020005F0829
:1001400021008E0020008B1721003808031DB80302
:100150000D30210035020318C72C00308A00B4305E
:10016000350703188A0A8200C1282B2913298429FC
:100170009F29C529E9290D2A192A5D2A052BAD2BAE
:10018000042C8830210039052000DE00083A031DC8
:10019000D0281B302100B80001302100B500C92C47
:1001A0000030210039040319C92C7F308F31D92741
:1001B00080312000DF007708DE005F040319C92CBE
:1001C0003330210039052000DE00033A031DEC28FE
:1001D00002302100B500C92C223021003905200051
:1001E000DE00023A031DF82803302100B500C92CB7
:1001F0001130210039052000DE00013A031D0729D6
:100200000D302100B80004302100B500C92C443065
:10021000210039052000DE00403A031DC92C0730BB
:100220002100B500C92C0030F6006C30F70000301A
:100230008E3167268131210030102100B31633152D
:100240003330210039052000DE00333A0319C92C70
:100250002100B501C92C003021003804031D632999
:100260007F308F31D92781312000E0007708DE0010
:10027000E1006108003003190130DE00E200E30113
:10028000E21BE3036208F6006308F7007F308F315A
:100290009C278131200061080319562922000C1087
:1002A0000C128C1220001810111060293C30210013
:1002B000AE00AF013C302100AC00AD0120001814AD
:1002C0002100B501C92C8830210039052000DE004D
:1002D000883A0319C92CDE012100B41E71292000BF
:1002E000DE0A20005E08003003190130E100DE0064
:1002F0005E0C03187D292100B412031C8129210002
:10030000B4162100B501C92C69308F31D92781314C
:100310002000E1007708DE000130F6005E08F700FB
:1003200061088E3167268131223021003905200095
:10033000DE00223A0319C92C2100B501C92C703006
:100340008F31D92781312000E1007708DE00E200FB
:100350000030F7006208DB24053020006202031839
:10036000BA2921003808031DBA291130B800053018
:100370002100B5001130210039052000DE00113ABE
:100380000319C92C2100B501C92C6A308F31D92736
:1003900081312000E1007708DE000030F6005E08C1
:1003A000F70061088E316726813121003808031D6E
:1003B000DE290D30B80006302100B50011302100D3
:1003C00039052000DE00113A0319C92C2100B501BE
:1003D000C92C6B308F31D92781312000E10077089B
:1003E000DE000030F6005E08F70061088E316726F7
:1003F000813121003808031D022A0D30B800043075
:100400002100B5001130210039052000DE00113A2D
:100410000319C92C2100B501C92C0130F7002100B6
:100420003608DB246E302100B80008302100B5000A
:10043000C92C0030210038040319262A88302100F5
:1004400039052000DE00803A031D292A2100B5016C
:10045000C92C2230210039052000DE00203A031D7E
:100460003B2A2100B60A063036020318B6010730CF
:100470002100B500C92C1130210039052000DE0013
:10048000103A031D4F2A2100B60306303602031C22
:100490004B2A0530B60007302100B500C92C443086
:1004A000210039052000DE00403A031DC92C21003F
:1004B000B70109302100B500C92C21003316B3164D
:1004C000331505302100360203189D2A0310210040
:1004D000370C2000DE00C23EDE0007300318013E6C
:1004E000E1005E08F6006108F7008030873174276C
:1004F00082312000E2002100B20021003708133AC7
:10050000031D8C2AD5302100B000DD302100B10060
:10051000FF302100B200FE2A2100371C962A8530C8
:100520002100B000D1302100B100FE2A613021004D
:10053000B00019302100B100FE2A0730F700210079
:1005400037088731A32782312000DE00E1015E08F1
:100550008F3EDE0061080318610F063EE1005E0871
:10056000F6006108F700803087317427823120005F
:10057000E2002100B0000730F70021003708873182
:10058000A32782312000DE00E1015E088F3EDE00FD
:1005900061080318610F063EE100DE0A0319E10A53
:1005A0005E08F6006108F7008030873174278231D9
:1005B0002000E2002100B1000730F70021003708D9
:1005C0008731A32782312000DE00E1015E088F3EE3
:1005D000DE0061080318610F063EE1000230DE070D
:1005E0000318E10A5E08F6006108F70080308731E1
:1005F000742782312000E2002100B2006E30210019
:10060000B8000A302100B500C92C003021003804A0
:10061000031D0D2B2100B501C92C8830210039059F
:100620002000DE00803A031D192B07302100B500A1
:10063000C92C2230210039052000DE00203A031D9C
:100640003A2B2100B70A05302100360203182F2B60
:10065000143021003702031C362BB701362B0D3026
:1006600021003702031C582BB701582B09302100F9
:10067000B500C92C1130210039052000DE00103AE8
:10068000031D782B2100B703053021003602031823
:10069000512B143021003702031C742B1330B70088
:1006A000742B0D3021003702031C582B0C30B7007F
:1006B00070308F31D92783312000E1007708DE00C8
:1006C000E20005306202031C742B21003708063A51
:1006D000031D6D2BB70AB70A742B21003708073AA0
:1006E000031D742BFE30B70709302100B500C92C5B
:1006F0004430210039052000DE00403A031DC92C9A
:100700002100360EF0392000DE0003102100360DE6
:100710002000E1000310E10D6108DE072100370829
:100720002000DE075E088F31D92783312000E500E5
:100730007708E40020005E08F60020006408F70057
:10074000650829252000E5007708E4006E302100C7
:10075000B8000B302100B500C92C0530210036024D
:100760000318D72B21003708133A031DC02B200094
:1007700064082000DE000030F7005E08DB24FD2B5B
:100780002100371CCD2B0030F60020006408F70054
:1007900065088E3167268331FD2B0130F60020007D
:1007A0006408F70065088E3167268331FD2B06301B
:1007B000210037020318E62B0130F6002000640800
:1007C000F70065088E3167268331FD2B0C30210040
:1007D00037020318F52B0030F60020006408F700FC
:1007E00065088E3167268331FD2B200064082000C8
:1007F000DE000030F7005E08DB246E302100B80018
:100800000C302100B500C92C2100360EF039200033
:10081000DE0003102100360D2000E1000310E10D81
:100820006108DE07210037082000DE0721003808B4
:10083000031D1D2C2100B501C92C8830210039056C
:100840002000E100803A031D292C09302100B50069
:10085000C92C2100B91E3F2C2000E40A0319E50A27
:100860006508803E7D3E031D372CE9306402031C81
:10087000552C09302000E4070318E50A552C210007
:10088000391E6C2CFF302000E407031CE5036508CB
:10089000803E7D3E031D4E2CE9306402031C552C26
:1008A000F7302000E407031CE50320005E08F60093
:1008B00020006408F700650829252000E500770876
:1008C000E4001F3028001D02031C682CF8309D072F
:1008D0000B302100B500C92C44302100390520001F
:1008E000E100403A031DC32C21003608053A031DE0
:1008F000B52C210037080C3A031DB52C0030F6004A
:100900000030F7006A308F319C2784310030F600C8
:100910000030F7006B308F319C2784312000650850
:10092000803E803E031D962C053064020318B52CD2
:10093000200064082000E100610EF039E20003109D
:10094000610DE3000310E30D63086207E1008F31DE
:10095000D92784312000E2007708E100F600620820
:10096000F70069308F319C27843120006408F6003D
:100970006508F70020005E088F319C27843109301C
:100980002100B500C92CFA3028009D00C92C210097
:10099000B501210035080030031901302000DE00C8
:1009A000E100610C0318D62C2100B411031CDA2CD1
:1009B0002100B41508002000D0007708CF002100E6
:1009C0003316B3163315B314053020005002031844
:1009D000022D19302100B000DD302100B1002000CF
:1009E0005008C23ED20007300318013ED100520821
:1009F000F6005108F70080308731742784312100D8
:100A0000B200282D003020004F040319112D613051
:100A10002100B00009302100B100C9302100B2002E
:100A2000282D20005008053A031D202DC930210033
:100A3000B000D1302100B100FF302100B200282DDC
:100A400003302100B00059302100B1002100B20074
:100A500008002000D7007708D6007608D800643058
:100A6000580203188F2D5808D9001430200059025D
:100A7000031C3D2DEC30D907352D20005908133AC1
:100A8000031D532D0630F3000030F4000030F50054
:100A90000030F6005608F7005708DB252000D70085
:100AA0007708D600D62D20005908013A031D692D7C
:100AB000E730F3000330F4000130F5000030F600B9
:100AC0005608F7005708DB252000D7007708D60026
:100AD000D62D2000591C7D2DE730F3000330F400A3
:100AE0000030F5000030F6005608F7005708DB2507
:100AF0002000D7007708D600D62D7830F3000530D7
:100B0000F4007030F500FE30F60020005608F700C3
:100B10005708DB252000D7007708D600D62D9C305B
:100B20002000D8070730F70058088731A327853100
:100B30002000D900DA0159088F3ED8000630DB00CA
:100B40005A0803185A0FDB0703305807D900DA0197
:100B5000DA0D5B08DA075908F6005A08F70080300A
:100B60008731862785312000DD007708DC000530DD
:100B7000D8070318DB0A5808F6005B08F700803036
:100B80008731862785312000DA007708D900F30005
:100B90005A08F4005C08F5005D08F6005608F700F6
:100BA0005708DB252000D7007708D600200056081C
:100BB000F700570808002000D0007708CF0076081B
:100BC000D2007508D1007408D4007308D30054080B
:100BD000803ED5005008803E5502031DF12D4F0880
:100BE00053020318F82D20005108F70052080E2E6A
:100BF00020005008803ED5005208803E5502031D5B
:100C0000032E51084F0203180A2E20005308F70044
:100C100054080E2E20004F08F70050080800EA3054
:100C2000F6000630F70080308731862786312100B4
:100C3000A1007708A000EC30A2000630A30021003C
:100C40002008A4002108A500FF30A007031CA10371
:100C50002408250403198C2E04302207A400A501C2
:100C6000A50D2308A5072408F6002508F700803005
:100C70008731862786312100A7007708A600220841
:100C8000F6002308F700803087318627863121005F
:100C9000A900A5007708A800A40002302207A4003C
:100CA000A501A50D2308A5072408F6002508F700CF
:100CB00080308731862786312100A500AB00770878
:100CC000A400AA0021002608AA002708AB00FF30D4
:100CD000A607031CA7032A082B040319862E28083D
:100CE000F6002908F700803087317427863121000B
:100CF000AA0024088400250885002A088000A80A84
:100D00000319A90AA40A0319A50A622E06302100B4
:100D1000A2070318A30A1F2E883100280800D13427
:100D2000A134FF340034003432340034D134A134DF
:100D30000D3400340034FA340034C934CD34FF3477
:100D4000CE34FF3432340034C934CD340D34CE3493
:100D5000FF343234003461341134FF347034FE34E3
:100D60009034013461341934FF347034FE347834F3
:100D700005346134C934FF3400340034083400349D
:100D80008534D134FF3400340034E7340334CD34B7
:100D90008534FF34003400343C340034D13485349D
:100DA000FF34003400343C340034DD341934FF3473
:100DB00000340034013400341934C1340D340034AB
:100DC000003401340034DD34D534FF3400340034D1
:100DD000053400340C34003403340034B3340034AC
:100DE00001340034D4340734B434003401340034D2
:100DF000CC3407346B34003402340034CE3407343E
:100E00006D34003402340034D0340734AC34003450
:100E100002340034D2340734AE34003402340034A7
:100E2000D5340734B534003401340034D6340734B3
:100E3000B634003401340034D7340734B7340034C6
:100E400001340034D8340734B83400340134003469
:100E5000D9340734B934003401340034DA34073477
:100E6000BA34003401340034003400341A34FE340F
:100E70009D34FE34F234FE343334FF346934FF34AD
:100E80009834FF34C334FF34EB34FF34103400346F
:100E9000333400345534003477340034983400341B
:100EA000B8340034D9340034FA3400341C340134FA
:100EB0003E3401346234013487340134AF340134B8
:100EC000D9340134073402343934023470340234F2
:100ED000B0340234FB34023458340334D134033494
:100EE00082340434CA340534003A03197B2F803A23
:100EF0000319812F003476088400770885000008E4
:100F0000080077088A00760882000800003A031972
:100F10008E2F803A0319962FF7010034760884004B
:100F2000770885001200F700000808008731812744
:100F3000F500F60FF703F70A87318127F4007508EB
:100F4000F700740808002000E6007708E700E801D1
:100F50000830E9002000661CAF2F6708E807200072
:100F60006608EA0003106A0CE6000310670DEA0049
:100F7000E7006908EA006A03E9006908031DAA2F6F
:100F8000680808000334B7340D342534B1346134B3
:100F90004134373401342134003400340034003417
:100FA0003C3400343C340034003400340034003429
:060FB0000034003400349F
:101000002000C001C101FF30C2007F30C300FF30AB
:10101000C4007F30C5006A30210099000E308C007A
:1010200022008C0121008D0122008D0121008E0102
:10103000063023008C0021001E169E1723008E010F
:101040000D3020009800F4302600990024309800DC
:101050000B309A00053020009C00FA309B002100E4
:101060009114373028009E00FA309D00C0302000D7
:101070008B00093021009D002000931D52288031F3
:1010800042208831200018185028FF302100B3007A
:1010900003302100B00059302100B2002100B1001E
:1010A000200093112000931E5C2D20004008C600F4
:1010B0000F39031DF32B4208F70043085F2520007A
:1010C000C7007708C6006630D9272000C900770816
:1010D000C8004608CA004708CB0048084A07200055
:1010E000EB0020004B082000EC002000490803180A
:1010F000490A03197D282000EC077030D927200009
:10110000C7007708C600C8000530480203180A2A3D
:101110002100331320004008C6004108C700C80161
:10112000C9014908803E803E031DA02800304802C6
:10113000031DA028E1304702031DA028003046020D
:10114000031C0D2A7030D9272000AD007708AC00B1
:10115000AE0005302E020318062A6A30D927200077
:10116000AD007708AC00AF006B30D9272000AD0090
:101170007708AC00AC0A0319AD0A09302F02031C32
:10118000C3280830AF0020002E0EF039B000031045
:101190002E0DB1000310B10D3108B00703102F0D53
:1011A000B1003007B100310AB200D9272000B300E6
:1011B0007708B20002303107B400D9272000B5000B
:1011C0007708B40033082D02031DE82832082C02EA
:1011D000031C692920002F08083A0319FA28033054
:1011E0003107B600D9272000B7007708B6003704CA
:1011F000031D542913302000B0073008D9272000E0
:10120000B6007708B000AE0005302E02031834296E
:101210002E0EF039B00003102E0DB6000310B60DDF
:101220003608B0073008D9272000B6007708B0008C
:10123000F6003608F70069309C270030F6000030D1
:10124000F7006A309C270030F6000030F7006B3062
:101250009C2720002E08B000B6013008F6003608A2
:10126000F70070309C27532920003408F600350819
:10127000F70069309C270530F6000030F700703029
:101280009C27063020002E02031C53290030F60054
:101290000030F7007F309C2722000C100C128C12BB
:1012A000200018101110062A20003408F600350816
:1012B000F70069309C272000AC01AD01AF0A2F0870
:1012C000AE00B0012E08F6003008F7006A309C2707
:1012D000FF296E30D9272000AF007708AE002F0419
:1012E0000319FF293108D9272000AF007708AE0085
:1012F0002D0EF039B1002C0EB0000F39B104B0063C
:101300000310B00DB10D0310B00DB10D2030B600BB
:10131000B701B801B901BA01200033083102031D39
:10132000932932083002031CB42920003208B0028D
:101330003308031C330FB1023408BB003508BC006E
:101340000030BC1BFF30BE00BD003B08B6073C08A8
:1013500003183C0FB7073D0803183D0FB8073E08B8
:1013600003183E0FB907CC2920002E08BB002F0818
:10137000BC000030BC1BFF30BE00BD003B08B60700
:101380003C0803183C0FB7073D0803183D0FB8078A
:101390003E0803183E0FB9072000BA0A40303A024F
:1013A000031C8C29360E0F39B600370EB700F03902
:1013B000B604B706380EB800F039B704B806390ECF
:1013C000B900F039B804B906F030B919B9040310FE
:1013D000B91B0314B90CB80CB70CB60C0310B91B2D
:1013E0000314B90CB80CB70CB60C3608AE003708AD
:1013F000AF002E08F6002F08F70069309C27200068
:101400002C08F6002D08F7006B309C272000C00147
:10141000C1010D2A2000C001C1012100341D1B2A79
:10142000B41D1B2A61302100B00011302100B10031
:10143000FF302100B2002100B41C2A2A22000C1225
:101440008C123C302100AC00AD013C302100AE00DC
:10145000AF01F32B6930D9272000A7007708A90036
:101460006530D9272000A8007708AB006F30D92756
:101470002000AA007708AD00AC0021002C082D0444
:101480000319462AFF30AC07031CAD0321002E08C8
:101490002F0403194F2AFF30AE07031CAF032000AF
:1014A000AD0122000C1E562A2000AD0A20002D0896
:1014B000003003190130AA00AD002D0C0318622A78
:1014C0002100B313031C662A2100B3172000AD01CD
:1014D00022008C1E6D2A2000AD0A20002D0800304D
:1014E00003190130AA00AD002D0C0318792A210040
:1014F000B311031C7D2A2100B31522000C1EAC2A57
:1015000020002708803EAE0020006C08803E2000AE
:101510002E02031D8F2A20006B08200029020318C9
:10152000DB2A20002C080319AC2A2B082902AD0065
:101530002808031C280A2702AA0020006E08803E03
:101540002000AE002A08803E2E02031DAA2A2D0884
:1015500020006D02031CDB2A22008C1E392B200088
:101560006C08803E2000AE002708803E2E02031D3E
:10157000BC2A290820006B020318DB2A20002C0853
:101580000319392B2B082907AD002708AA002808C2
:101590000318280FAA072A08803EAE0020006E0814
:1015A000803E20002E02031DD92A20006D08200055
:1015B0002D020318392B6C30D9272000AA00770898
:1015C000AD002A0EF0392100AD0020002D0E2100C3
:1015D000AC000F39AD04AC060310AC0DAD0D03101B
:1015E000AC0DAD0D2C0E0F392000AD0021002D0EDD
:1015F0002000AA00F039AD04AA062D082100AC0293
:1016000020002A08031C2A0A0319082B2100AD0216
:101610006D30D9272000AA007708AD002A0EF039D6
:101620002100AF0020002D0E2100AE000F39AF04C5
:10163000AE060310AE0DAF0D0310AE0DAF0D2E0EA6
:101640000F392000AD0021002F0E2000AA00F03934
:10165000AD04AA062D082100AE0220002A08031CB2
:101660002A0A0319352B2100AF0222000C128C121A
:10167000F32B22000C1AF32B8C1AF32B6430D9278E
:101680002000AA007708AD000310A81B0314A80CC3
:10169000AB0C0310A81B0314A80CAB0C2D082907D6
:1016A000AE002708AF002A0803182A0FAF072F083B
:1016B000803EB00020006C08803E20003002031DF8
:1016C000652B20006B0820002E020318A22B20009F
:1016D0002C080319822B2B082902AE002808031CB2
:1016E000280A2702AF0020006E08803E2000B000CC
:1016F0002F08803E3002031D802B2E0820006D0233
:10170000031CA22B21002C082D0403199F2B200061
:10171000AE012100B31F8E2B2000AE0A21002C0841
:1017200001392000AF00B000AE062E0C03189A2B32
:101730002100B313031C9E2B2100B317F32B2200AF
:101740000C16F32B20002D082902AD002A08031CDB
:101750002A0A2702AA0020006C08803E2000B1005F
:101760002A08803E3102031DB82B2D0820006B0291
:101770000318F32B20002C080319D42B2B08A907DE
:1017800028080318280FA7072708803EB10020006B
:101790006E08803E20003102031DD22B20006D0810
:1017A00020002902031CF32B21002E082F0403190B
:1017B000F12B2000A9012100B31DE02B2000A90A74
:1017C00021002E0801392000A700AB00A906290C32
:1017D0000318EC2B2100B311031CF02B2100B315CF
:1017E000F32B22008C1620004008C6000F30C605DF
:1017F0004608073A031D3A2D2100331720004408FC
:10180000F70045085F252000C7007708C60067304D
:10181000D9272000C9007708C8004608CA00470831
:10182000CB0048084A072000ED0020004B082000AC
:10183000EE00200049080318490A0319212C200052
:10184000EE0720004308C600C7014608C800F8306C
:101850004802C601031C4614460800300319013033
:10186000C9004908031D6A2C09304802C601C60D8B
:101870004608003003190130C8004808031D6A2CCF
:101880006F30D9272000C8007708C6004804031924
:10189000672C4508C600C8014608C900F83049024F
:1018A000C601031C46144608003003190130CA0063
:1018B0004A08031D6A2C09304902C601C60D4608B4
:1018C000003003190130C9004908031D6A2C2000AB
:1018D000C6016D2C01302000C60020004608C9005A
:1018E000490C0318752C2100B410031C792C21001D
:1018F000B4146830D9272000C9007708C60049040D
:101900000319E92C6930D9272000CB007708CA00D9
:1019100020006B082000CC0020006C082000CD00C7
:101920004A084C02CA004B08031C4B0A4D02CB006C
:101930000314CB1F0310031CA22CCA09CB09CA0A2B
:101940000319CB0A03142000C91F0310031CCB2C5E
:10195000C609C909C60A0319C90A4908803ECE004A
:101960004B08803E4E02031DB72C4A084602200059
:10197000CC01031C4C144C08003003190130CD007D
:10198000CC004C0C0318C62C21003411031CCA2CAB
:1019900021003415E92C20004B08803ECE00490878
:1019A000803E4E02031DD62C46084A022000CC0180
:1019B000031C4C144C08003003190130C600CC0045
:1019C0004C0C0318E52C21003411031CE92C2100D8
:1019D00034152100B41D232DB41CFA2C1130210024
:1019E000B000CB302100B100FF302100B200210057
:1019F0003317232D2000C6012100B41E012D200025
:101A0000C60A20004608003003190130CA00C6008B
:101A1000460C03180D2D2100B310031C112D2100BD
:101A2000B3142100B41E1C2D0130F60020006D08F7
:101A3000F7006E086726232D0130F60020006B08A2
:101A4000F7006C0867262100B4182B2D34192B2DB4
:101A50002000C6012E2D01302000C60020004608BF
:101A6000CA004A0C0318362D22000C10031C3A2D14
:101A700022000C142000C00A0319C10A4008C60045
:101A8000461C4E2D4208F70043082B262000C300B9
:101A90007708C200053021009D005A2D200044081F
:101AA000F70045082B262000C5007708C400093040
:101AB00021009D002000931264003C2808002000B3
:101AC000A0007708A1002030A200A301A401A60174
:101AD000210E0F39A500200EA700F039A504A70696
:101AE0000310A70CA50C3F30A505A7012508A900E8
:101AF0000310200CA500A7010310A70CA50C0310D0
:101B0000A70CA50C1F302505A100A0012108A500E8
:101B1000250AA1000230F70021088731A3278D3163
:101B20002000A000A7012008343EA0000730A1003B
:101B300027080318270FA1070230F700250887316F
:101B4000A3278D312000A700A8012708343EA70055
:101B50000730A50028080318280FA507A8012000B2
:101B600029082802031CD72D2708F6002508F700AE
:101B70008030873186278D312000AB007708AA009E
:101B8000AD002B08AC000030AC1BFF30AE00AF0046
:101B90002D08A2072C0803182C0FA3072F080318E1
:101BA0002F0FA4072E0803182E0FA607FA2D2000CA
:101BB0002008F6002108F7008030873186278D3114
:101BC0002000AB007708AA00AD002B08AC00003065
:101BD000AC1BFF30AE00AF002D08A2072C08031885
:101BE0002C0FA3072F0803182F0FA4072E08031884
:101BF0002E0FA6072000A80A40302802031CAF2D94
:101C0000220E0F39A100230EA000F039A104A00676
:101C1000240EA500F039A004A506260EA700F03971
:101C2000A504A706F030A719A7040310A71B0314E7
:101C3000A70CA50CA00CA10C0310A71B0314A70C48
:101C4000A50CA00CA10C2108A2002008A3002208CA
:101C5000F700230808002000A0007708A100210059
:101C60009D182F2E1D102000210E0F39A200200ECE
:101C7000A300F039A204A3060310A30CA20C0310C6
:101C8000A30CA20C2208A1022308031C230FA0020C
:101C900021001C082000A200A3012208A400A60124
:101CA00021001B082000A200A3012208A60423088B
:101CB000A4042608A2002408A3002208A1072308E0
:101CC0000318230FA0072108F700200808002000B0
:101CD000A0007708A1007608A2000314A01F03103B
:101CE000031C7B2E210033122000A109A009A10AA8
:101CF0000319A00A7D2E2100331600302000220493
:101D00000319852E2100B312331120002008803ED4
:101D10007D3E031D8D2EE8302102031CF92E20008C
:101D20002108A3002008A4000310240CA600230C03
:101D3000A5000310240CA700230CA9000310A70C76
:101D4000A90C2908A50727080318270FA607250EA1
:101D50000F39A900260EA700F039A904A706290803
:101D6000A50727080318270FA6072608A900A7011B
:101D70002908A50727080318270FA6070310A60C94
:101D8000A50C0310A60CA50C0310A60CA50C0310A3
:101D9000250DA900260DA7000310A90DA70D0310FE
:101DA000A90DA70D0310250DA800260DAB002808CE
:101DB000A9072B0803182B0FA7072908A302270838
:101DC000031C270FA4020630A3070318A40A230E3E
:101DD0000F39A900240EA700F039A904A706290885
:101DE0002507A1002608A00027080318270FA00731
:101DF000A20120002008803E803E031D012F643098
:101E00002102031C352F20002108A3002008A40074
:101E1000A50120002408803E803E031D112F643060
:101E20002302031C1A2F9C302000A307031CA403C9
:101E3000A50A092F20002308A1002408A0000F30C4
:101E4000A5052508C23EA50007300318013EA300E2
:101E50002508F6002308F7008030873174278F317A
:101E60002000A4002100B000382FFF302100B00076
:101E700020002008803E803E031D402F0A302102B2
:101E800003184D2F20002208031D4D2F210030087C
:101E90002000A300FF3A0319832F20002108A3008C
:101EA0002008A400A50120002408803E803E031DD8
:101EB0005B2F0A302302031C642FF6302000A30797
:101EC000031CA403A50A532F20002308A100240803
:101ED000A0002508C23EA50007300318013EA3005C
:101EE0002508F6002308F7008030873174278F31EA
:101EF0002000A4002100B100200022080319862F31
:101F000021003110862FFF302100B1002000210870
:101F1000A200C23EA10007300318013EA000210824
:101F2000F6002008F7008030873174278F312000B9
:101F3000A2002100B20008002000A7007708A90035
:101F40007608A8002708D9272000AB007708AA0048
:101F50002806031DAF2F2B0829060319D82F0310BD
:101F60002000270DAA0020002A082300910020004D
:101F700028082300930015139513151520008B13C3
:101F8000553023009600AA309600951420008B1738
:101F90002300151123009518CA2F200012122000CB
:101FA0002908A800A9012A08A700AA0A271CB32FFC
:101FB00008002000A000A101A2010310200DA30031
:101FC00020002308230091001513951315141308FE
:101FD0002000A000A4012008A600A5012208A0005E
:101FE000A40120082504A10024082604A200230837
:101FF000A000A30A201CE02F2108F70022080800F7
:020000040001F9
:02000E00D40F0D
:02001000FF3AB5
:00000001FF
