:020000040000FA
:1000000000008D31882DFF348A012000911C412889
:10001000031022000D0D2000BF003F08031D122811
:100020001030BF0021008E0122008D0120003F080A
:10003000103A031928283F08203A03192D283F08B1
:10004000403A031932283F08803A031937283B28E1
:1000500021002D0822008E003B2821002E082200BE
:100060008E003B2821002F0822008E003B28210013
:10007000300822008E0020003F0822008D00200062
:10008000911009002000C001C101FF30C2007F3083
:10009000C300FF30C4007F30C5006A3021009900E2
:1000A0000E308C0022008C0121008D0122008D0178
:1000B00021008E01063023008C0021001E169E17A1
:1000C00023008E0120009813181398121812981507
:1000D00018151814F43025009200243091000B30CC
:1000E0009300053020009C00FA309B002100911401
:1000F000373028009E00FA309D00C03020008B0071
:10010000093021009D002000931D9928883100208E
:100110008031200018189728FF302100B0000330EC
:100120002100AD0059302100AF002100AE002000B9
:1001300093112000111D452D0F3020004005C600F1
:10014000C70100304702031DA7280A3046020318E2
:100150000D2D80308A00B1302000460703188A0A2E
:100160008200BB28F8291C2A402A772AE82AF52A87
:10017000C22CC52CDF2C7E30C1272000C700770899
:10018000C600C800063048020318F42921003013C5
:1001900020004008C6004108C700C801C90149083D
:1001A000803E803E031DDE2800304802031DDE280D
:1001B000E1304702031DDE2800304602031C0D2DEE
:1001C0007E30C1272000AD007708AC00AE000630BD
:1001D0002E020318F0297830C1272000AD007708DF
:1001E000AC00AF007930C1272000AD007708AC002B
:1001F000AC0A0319AD0A09302F02031C012908308B
:10020000AF0020002E0EF039B00003102E0DB1000B
:10021000B0072E083007AE0003102F0DB000AE0758
:100220002E0AB000C1272000B1007708B0000230CC
:100230002E07B200C1272000B3007708B2003108B2
:100240002D02031D252930082C02031C53292000F0
:100250003208F6003308F7007730842720002F0893
:10026000083A03193E2903302E07B400C1272000A5
:10027000B5007708B4003504031D45290630F600A3
:100280000030F7007E308427F0292000AC01AD015A
:10029000AF0A2F08B400B5013408F6003508F7009E
:1002A00078308427E9297C30C1272000B400770802
:1002B000AF0034040319E9292E08C1272000AF003C
:1002C0007708AE002D0EF039B5002C0EB4000F39B2
:1002D000B504B4060310B40DB50D0310B40DB50D7F
:1002E0002030B600B701B801B901BA0120003108C9
:1002F0003502031D7D2930083402031C9E2920008D
:100300003008B4023108031C310FB5023208BB00BB
:100310003308BC000030BC1BFF30BE00BD003B08F2
:10032000B6073C0803183C0FB7073D0803183D0FFC
:10033000B8073E0803183E0FB907B62920002E085B
:10034000BB002F08BC000030BC1BFF30BE00BD004E
:100350003B08B6073C0803183C0FB7073D080318D5
:100360003D0FB8073E0803183E0FB9072000BA0A30
:1003700040303A02031C7629360E0F39B600370E8C
:10038000B700F039B604B706380EB800F039B70434
:10039000B806390EB900F039B804B906F030B91909
:1003A000B9040310B91B0314B90CB80CB70CB60C84
:1003B0000310B91B0314B90CB80CB70CB60C3608F3
:1003C000AE003708AF002E08F6002F08F700773090
:1003D000842720002C08F6002D08F70079308427A8
:1003E0002000C001C1010D2D2000C001C1010D2D53
:1003F00020004208F700430848252000C70077087E
:10040000C6007430C1272000C9007708C80046081C
:10041000CA004708CB0048084A072100A500200071
:100420004B082100A600200049080318490A0319B7
:100430001B2A2100A6070D2D20004408F7004508BF
:1004400048252000C7007708C6007530C127200066
:10045000C9007708C8004608CA004708CB0048080A
:100460004A072100A70020004B082100A800200017
:1004700049080318490A03193F2A2100A8070D2D2E
:1004800020004308C600C7014608C800F8304802EB
:100490000318672A09304802031C672A7D30C127E8
:1004A0002000C7007708C60047040319642A4508DE
:1004B000C600C7014608C800F83048020318672A7A
:1004C00009304802031C672A2000C6016A2A01304D
:1004D0002000C60020004608C700470C0318722AF7
:1004E0002100B110031C762A2100B1140D2D7630A5
:1004F000C1272000C7007708C600470403190D2D47
:100500007730C1272000C9007708C80021002508DE
:100510002000CA00210026082000CB0048084A021B
:10052000C8004908031C490A4B02C9000314C91F2B
:100530000310031CA02AC809C909C80A0319C90A5B
:1005400003142000C71F0310031CC92AC609C709CA
:10055000C60A0319C70A4708803ECC004908803EF6
:100560004C02031DB52A480846022000CA01031C9C
:100570004A144A08003003190130CB00CA004A0C63
:100580000318C42A21003111031CC82A2100311587
:100590000D2D20004908803ECC004708803E4C02CB
:1005A000031DD42A460848022000CA01031C4A142D
:1005B0004A08003003190130C600CA004A0C03186B
:1005C000E32A21003111031CE72A210031150D2DEA
:1005D0002100311D0D2D61302100AD0011302100B1
:1005E000AE00FF302100AF000D2D2100B1180D2D00
:1005F0007730C1272000A7007708A9007330C127F2
:100600002000A8007708AB007D30C1272000AA0099
:100610007708AD00AC00210029082A040319142B27
:10062000FF30A907031CAA0321002B082C0403197F
:100630001D2BFF30AB07031CAC032000AD012200D3
:100640000C1E242B2000AD0A20002D0800300319B9
:100650000130AA00AD002D0C0318302B2100B0137F
:10066000031C342B2100B0172000AD0122008C1E8A
:100670003B2B2000AD0A20002D080030031901306B
:10068000AA00AD002D0C0318472B2100B011031C4C
:100690004B2B2100B01522000C1E7A2B20002708BE
:1006A000803EAE0021002608803E20002E02031D61
:1006B0005D2B21002508200029020318A92B20000A
:1006C0002C0803197A2B2B082902AD002808031CDB
:1006D000280A2702AA0021002808803E2000AE0038
:1006E0002A08803E2E02031D782B2D0821002702A8
:1006F000031CA92B22008C1E072C21002608803EFB
:100700002000AE002708803E2E02031D8A2B2908F8
:10071000210025020318A92B20002C080319072CFF
:100720002B082907AD002708AA0028080318280F5E
:10073000AA072A08803EAE0021002808803E20003B
:100740002E02031DA72B2100270820002D020318CD
:10075000072C7A30C1272000AA007708AD002A0EA6
:10076000F0392100AA0020002D0E2100A9000F3928
:10077000AA04A9060310A90DAA0D0310A90DAA0D1C
:10078000290E0F392000AD0021002A0E2000AA00FA
:10079000F039AD04AA062D082100A90220002A087C
:1007A000031C2A0A0319D62B2100AA027B30C12779
:1007B0002000AA007708AD002A0EF0392100AC0015
:1007C00020002D0E2100AB000F39AC04AB06031046
:1007D000AB0DAC0D0310AB0DAC0D2B0E0F39200083
:1007E000AD0021002C0E2000AA00F039AD04AA06AD
:1007F0002D082100AB0220002A08031C2A0A031935
:10080000032C2100AC0222000C128C12C12C2200FD
:100810000C1AC12C8C1AC12C7230C1272000AA00DE
:100820007708AD000310A81B0314A80CAB0C031031
:10083000A81B0314A80CAB0C2D082907AE00270831
:10084000AF002A0803182A0FAF072F08803EB00018
:1008500021002608803E20003002031D332C210099
:10086000250820002E020318702C20002C080319E4
:10087000502C2B082902AE002808031C280A270246
:10088000AF0021002808803E2000B0002F08803EE5
:100890003002031D4E2C2E0821002702031C702C51
:1008A000210029082A0403196D2C2000AE01210023
:1008B000B01F5C2C2000AE0A21002908013920005D
:1008C000AF00B000AE062E0C0318682C2100B01348
:1008D000031C6C2C2100B017C12C22000C16C12C5B
:1008E00020002D082902AD002A08031C2A0A27022D
:1008F000AA0021002608803E2000B1002A08803E80
:100900003102031D862C2D08210025020318C12C5D
:1009100020002C080319A22C2B08A907280803186B
:10092000280FA7072708803EB10021002808803E35
:1009300020003102031DA02C2100270820002902DD
:10094000031CC12C21002B082C040319BF2C2000F0
:10095000A9012100B01DAE2C2000A90A21002B08FE
:1009600001392000A700AB00A906290C0318BA2CF6
:100970002100B011031CBE2C2100B015C12C220097
:100980008C160D2D210030170D2D2100B11C0D2DC1
:1009900011302100AD00CB302100AE00FF3021002E
:1009A000AF002100B00022000C128C123C3021005C
:1009B000A900AA013C302100AB00AC010D2D2100A3
:1009C000B1180D2DB11D0D2D2000C6012100B11E45
:1009D000EB2C2000C60A2000460800300319013025
:1009E000C800C600460C0318F72C2100B010031CE9
:1009F000FB2C2100B0142100B11E062D0130F600A1
:100A000021002708F70028084F260D2D0130F60099
:100A100021002508F70026084F262000C00A0319E8
:100A2000C10A2100B118192D3119192D2000C60154
:100A30001C2D01302000C60020004608C800480CCC
:100A40000318242D22000C10031C282D22000C1446
:100A50002000401C372D4208F700430814262000D0
:100A6000C3007708C200053021009D00432D2000FF
:100A70004408F700450814262000C5007708C40084
:100A8000093021009D002000111164008328080016
:100A90002000A0007708A1002030A200A301A4013B
:100AA000A601210E0F39A500200EA700F039A504DC
:100AB000A7060310A70CA50C3F30A505A701250824
:100AC000A9000310200CA500A7010310A70CA50C7A
:100AD0000310A70CA50C1F302505A100A0012108BB
:100AE000A500250AA1000230F70021088F311C273C
:100AF00085312000A000A7012008AD3EA0008E3067
:100B0000A10027080318270FA1070230F7002508C6
:100B10008F311C2785312000A700A8012708AD3E92
:100B2000A7008E30A50028080318280FA507A801E4
:100B3000200029082802031CC02D2708F6002508DC
:100B4000F70080308E31FF2685312000AB0077081A
:100B5000AA00AD002B08AC000030AC1BFF30AE008B
:100B6000AF002D08A2072C0803182C0FA3072F088D
:100B700003182F0FA4072E0803182E0FA607E32D26
:100B800020002008F6002108F70080308E31FF2673
:100B900085312000AB007708AA00AD002B08AC001F
:100BA0000030AC1BFF30AE00AF002D08A2072C08B0
:100BB00003182C0FA3072F0803182F0FA4072E08C4
:100BC00003182E0FA6072000A80A40302802031C95
:100BD000982D220E0F39A100230EA000F039A10498
:100BE000A006240EA500F039A004A506260EA70035
:100BF000F039A504A706F030A719A7040310A71B16
:100C00000314A70CA50CA00CA10C0310A71B031424
:100C1000A70CA50CA00CA10C2108A2002008A30081
:100C20002208F700230808002000A0007708A10090
:100C300021009D18182E2000210E0F39A200200E31
:100C4000A300F039A204A3060310A30CA20C031006
:100C5000A30CA20C2208A1022308031C230FA0024C
:100C600021001C082000A200A3012208A400A60164
:100C700021001B082000A200A3012208A6042308CB
:100C8000A4042608A2002408A3002208A107230820
:100C90000318230FA0072108F700200808002000F0
:100CA000A0007708A1007608A2000314A01F03107B
:100CB000031C632E210030122000A109A009A10A03
:100CC0000319A00A652E21003016003020002204EE
:100CD00003196D2E2100B012301120002008803E33
:100CE0007D3E031D752EE8302102031CE12E2000FD
:100CF0002108A3002008A4000310240CA600230C44
:100D0000A5000310240CA700230CA9000310A70CB6
:100D1000A90C2908A50727080318270FA607250EE1
:100D20000F39A900260EA700F039A904A706290843
:100D3000A50727080318270FA6072608A900A7015B
:100D40002908A50727080318270FA6070310A60CD4
:100D5000A50C0310A60CA50C0310A60CA50C0310E3
:100D6000250DA900260DA7000310A90DA70D03103E
:100D7000A90DA70D0310250DA800260DAB0028080E
:100D8000A9072B0803182B0FA7072908A302270878
:100D9000031C270FA4020630A3070318A40A230E7E
:100DA0000F39A900240EA700F039A904A7062908C5
:100DB0002507A1002608A00027080318270FA00771
:100DC000A20120002008803E803E031DE92E6430F1
:100DD0002102031C1D2F20002108A3002008A400CD
:100DE000A50120002408803E803E031DF92E6430BA
:100DF0002302031C022F9C302000A307031CA40322
:100E0000A50AF12E20002308A1002408A0000F301D
:100E1000A5052508E83EA50087300318013EA3007C
:100E20002508F6002308F70080308E31ED26873143
:100E30002000A4002100AD00202FFF302100AD00D4
:100E400020002008803E803E031D282F0A3021020A
:100E50000318352F20002208031D352F21002D08EF
:100E60002000A300FF3A03196B2F20002108A300E4
:100E70002008A400A50120002408803E803E031D18
:100E8000432F0A302302031C4C2FF6302000A30707
:100E9000031CA403A50A3B2F20002308A10024085B
:100EA000A0002508E83EA50087300318013EA300F6
:100EB0002508F6002308F70080308E31ED268731B3
:100EC0002000A4002100AE002000220803196E2F8C
:100ED00021002E106E2FFF302100AE0020002108CF
:100EE000A200E83EA10087300318013EA0002108BF
:100EF000F6002008F70080308E31ED268731200083
:100F0000A2002100AF0008002000A7007708A90078
:100F10007608A8002708C1272000AB007708AA00A0
:100F20002806031D972F2B0829060319C02F03102D
:100F30002000270DAA0020002A082300910020008D
:100F400028082300930015139513151520008B1303
:100F5000553023009600AA309600951420008B1778
:100F60002300151123009518B22F20001212200023
:100F70002908A800A9012A08A700AA0A271C9B2F54
:100F800008002000A000A101A2010310200DA30071
:100F9000200023082300910015139513151413083E
:100FA0002000A000A4012008A600A5012208A0009E
:100FB000A40120082504A10024082604A200230877
:100FC000A000A30A201CC82F2108F700220808004F
:100FD0000334B7340D342534B134613441343734FB
:100FE0000134213400340034003400343C34003403
:100FF0003C34003400340034003400340034003415
:1010000020008B1322000D082000DC0021000E08B8
:101010002000DD0022008D01D83021008E00031059
:101020002100360D2000DE00DF0120008E1F1A286F
:101030002000DF0A20005E08E0005F08DE00600498
:101040002100B6000310360D2000DE00DF01200075
:101050000E1E2C282000DF0A20005E08E0005F083A
:10106000DE0060042100B6000310360D2000DE0013
:10107000DF0120000E1F3E282000DF0A20005E084E
:10108000E0005F08DE0060042100B6000310360DAA
:101090002000DE00DF0120008E1D50282000DF0A26
:1010A00020005E08E0005F08DE0060042100B6005A
:1010B00020005C0822008D0020005D0821008E00C9
:1010C00020008B1721003508031DB5030D302100CA
:1010D000320203187A2C88308A00723032070318E3
:1010E0008A0A82007F28E928D12842295D2983299C
:1010F000A729CB29D7291B2AB42A5D2BA62B8830F8
:10110000210036052000DC00083A031D8E281B3024
:101110002100B50001302100B2007C2C00302100FC
:10112000360403197C2C7F308731C1278831200099
:10113000DD007708DC005D0403197C2C33302100CE
:1011400036052000DC00033A031DAA2802302100E6
:10115000B2007C2C2230210036052000DC00023A4F
:10116000031DB62803302100B2007C2C1130210071
:1011700036052000DC00013A031DC5280D30210092
:10118000B50004302100B2007C2C4430210036052B
:101190002000DC00403A031D7C2C07302100B20007
:1011A0007C2C0030F6006B30F700003086314F2683
:1011B000883121002D102100B01630153330210068
:1011C00036052000DC00333A03197C2C2100B201E3
:1011D0007C2C003021003504031D21297F3087310C
:1011E000C12788312000DE007708DC00DF005F08BF
:1011F000003003190130DC00E000E101E01BE103F5
:101200006008F6006108F7007F3087318427893154
:1012100020005F080319142922000C100C128C12F4
:101220002000181011101E293C302100AB00AC0129
:101230003C302100A900AA01200018142100B201AD
:101240007C2C8830210036052000DC00883A031908
:101250007C2CDC012100B11E2F292000DC0A20009B
:101260005C08003003190130DF00DC005C0C03185F
:101270003B292100B112031C3F292100B116210096
:10128000B2017C2C77308731C12789312000DF0003
:101290007708DC000130F6005C08F7005F08863153
:1012A0004F2689312230210036052000DC00223A09
:1012B00003197C2C2100B2017C2C7E308731C127A0
:1012C00089312000DF007708DC00E0000030F70003
:1012D00060088E240630200060020318782921005F
:1012E0003508031D78291130B50005302100B20002
:1012F0001130210036052000DC00113A03197C2C46
:101300002100B2017C2C78308731C127893120003F
:10131000DF007708DC000030F6005C08F7005F08AB
:1013200086314F26893121003508031D9C290D3057
:10133000B50006302100B200113021003605200032
:10134000DC00113A03197C2C2100B2017C2C79308D
:101350008731C12789312000DF007708DC000030A9
:10136000F6005C08F7005F0886314F2689312100BE
:101370003508031DC0290D30B50004302100B2002E
:101380001130210036052000DC00113A03197C2CB5
:101390002100B2017C2C0130F700210033088E249B
:1013A0006E302100B50008302100B2007C2C0030E6
:1013B000210035040319E429883021003605200076
:1013C000DC00803A031DE7292100B2017C2C223089
:1013D000210036052000DC00203A031DF9292100F8
:1013E000B30A073033020318B30107302100B200FB
:1013F0007C2C1130210036052000DC00103A031D42
:101400000D2A2100B30307303302031C092A0630DA
:10141000B30007302100B2007C2C44302100360597
:101420002000DC00403A031D7C2C2100B40109306F
:101430002100B2007C2C21003016B0163015063089
:101440002100330203184C2A2100341C2E2A853037
:101450002100AD00D1302100AE00342A61302100DE
:10146000AD0019302100AE0003102100340C200023
:10147000DC00E83EDC0087300318013EDF005C083A
:10148000F6005F08F70080308E31ED268A312000AB
:10149000E0002100AF00AD2A0730F700210034083A
:1014A0008F311C278A312000DC00DF015C08083EF8
:1014B000DC005F0803185F0F8E3EDF005C08F6005B
:1014C0005F08F70080308E31ED268A312000E00081
:1014D0002100AD000730F700210034088F311C27B0
:1014E0008A312000DC00DF015C08083EDC005F0878
:1014F00003185F0F8E3EDF00DC0A0319DF0A5C0869
:10150000F6005F08F70080308E31ED268A3120002A
:10151000E0002100AE000730F700210034088F31D1
:101520001C278A312000DC00DF015C08083EDC005B
:101530005F0803185F0F8E3EDF000230DC070318E0
:10154000DF0A5C08F6005F08F70080308E31ED2678
:101550008A312000E0002100AF006E302100B5008C
:101560000A302100B2007C2C003021003504031D1C
:10157000BC2A2100B2017C2C8830210036052000D5
:10158000DC00803A031DC82A07302100B2007C2C01
:101590002230210036052000DC00203A031DE92A14
:1015A0002100B40A0630210033020318DE2A13306A
:1015B00021003402031CE52AB401E52A0D30210084
:1015C0003402031C072BB401072B09302100B200A1
:1015D0007C2C1130210036052000DC00103A031D60
:1015E000272B2100B4030630210033020318002BFF
:1015F000133021003402031C232B1230B400232BA0
:101600000D3021003402031C072B0C30B4007E3057
:101610008731C1278B312000DF007708DC00E00034
:1016200006306002031C232B21003408063A031DF8
:101630001C2BB40AB40A232B21003408073A031DDB
:10164000232BFE30B40709302100B2007C2C44303B
:10165000210036052000DC00403A031D7C2C2100CF
:10166000330EF0392000DC0003102100330D200080
:10167000DF00DC07210033082000DC0721003408EC
:101680002000DC075C088731C1278B312000E30094
:101690007708E20020005C08F60020006208F700EE
:1016A0006308CE242000E3007708E2006E302100BA
:1016B000B5000B302100B2007C2C06302100330233
:1016C0000318792B2100341C6F2B0030F60020000A
:1016D0006208F700630886314F268B319F2B01305B
:1016E000F60020006208F700630886314F268B3130
:1016F0009F2B0630210034020318882B0130F6009E
:1017000020006208F700630886314F268B319F2B3B
:101710000C30210034020318972B0030F600200013
:101720006208F700630886314F268B319F2B20001B
:1017300062082000DC000030F7005C088E246E3068
:101740002100B5000C302100B2007C2C2100330EAA
:10175000F0392000DC0003102100330D2000DF00F1
:10176000DC07210033082000DC07210034082000BA
:10177000DC0721003508031DC02B2100B2017C2CA1
:101780008830210036052000DF00803A031DCC2B75
:1017900009302100B2007C2C2100B61EE22B200073
:1017A000E20A0319E30A6308803E7D3E031DDA2B3B
:1017B000E9306202031CF82B09302000E20703180D
:1017C000E30AF82B2100361E0F2CFF302000E20721
:1017D000031CE3036308803E7D3E031DF12BE930CB
:1017E0006202031CF82BF7302000E207031CE3031E
:1017F00020005C08F60020006208F7006308CE2491
:101800002000E3007708E2001F3028001D02031CBF
:101810000B2CF8309D070B302100B2007C2C44309B
:10182000210036052000DF00403A031D762C210000
:101830003308063A031D682C210034080C3A031DB6
:10184000682C0030F6000030F700783087318427AC
:101850008C310030F6000030F70079308731842772
:101860008C3120006308803E803E031D392C0630F9
:1018700062020318682C200062082000DF005F0E5F
:10188000F039E00003105F0DE100E0075F0860073A
:10189000DF008731C1278C312000E1007708E000AC
:1018A000F6006108F7007730873184278C312000FB
:1018B000DF0A5F088731C1278C312000E0007708FC
:1018C000DF006004031D682C06302000E200E30105
:1018D00020006208F6006308F70020005C088731EA
:1018E00084278C3109302100B2007C2CFA3028008A
:1018F0009D007C2C2100B201210032080030031928
:1019000001302000DC00DF005F0C0318892C21006F
:10191000B111031C8D2C2100B11508002000CE0050
:101920007708CD0021003016B0163015B0140630FF
:1019300020004E020318B52C19302100AD00DD3017
:101940002100AE0020004E08E83ECE00873003188C
:10195000013ED0004E08F6005008F70080308E316E
:10196000ED268C312100AF00CD2C003020004D043D
:101970000319C42C61302100AD0009302100AE00F4
:10198000C9302100AF00CD2CC9302100AD00D130CD
:101990002100AE00FF302100AF0008002000D5007C
:1019A0007708D4007608D600723056020318082D46
:1019B0005608D700133020005702031CE22CED30EC
:1019C000D707DA2C2000571CF62CE730F300033041
:1019D000F4000030F5000030F6005408F700550818
:1019E00054252000D5007708D4004F2D7830F3001F
:1019F0000530F4007030F500FE30F6002000540889
:101A0000F700550854252000D5007708D4004F2D45
:101A10008E302000D6070730F70056088F311C277C
:101A20008D312000D700D8015708083ED6008E30EF
:101A3000D90058080318580FD90703305607D700A4
:101A4000D801D80D5908D8075708F6005808F700EC
:101A500080308E31FF268D312000DB007708DA00E0
:101A60000530D6070318D90A5608F6005908F700BA
:101A700080308E31FF268D312000D8007708D700C6
:101A8000F3005808F4005A08F5005B08F600540803
:101A9000F700550854252000D5007708D400200011
:101AA0005408F700550808002000CE007708CD0044
:101AB0007608D0007508CF007408D2007308D100F2
:101AC0005208803ED3004E08803E5302031D6A2D0B
:101AD0004D0851020318712D20004F08F7005008DF
:101AE000872D20004E08803ED3005008803E5302D0
:101AF000031D7C2D4F084D020318832D2000510833
:101B0000F7005208872D20004D08F7004E08080006
:101B10006330F6008E30F70080308E31FF268D3135
:101B20002000E5007708E4006530E6008E30E7002D
:101B300020006408E8006508E900FF30E407031CA2
:101B4000E503680869040319052E04306607E800F8
:101B5000E901E90D6708E9076808F6006908F70078
:101B600080308E31FF268D312000EB007708EA00AF
:101B70006608F6006708F70080308E31FF268D3149
:101B80002000ED00E9007708EC00E800023066076D
:101B9000E800E901E90D6708E9076808F600690847
:101BA000F70080308E31FF268D312000E900EF00F4
:101BB0007708E800EE0020006A08EE006B08EF00EE
:101BC000FF30EA07031CEB036E086F040319FF2DB7
:101BD0006C08F6006D08F70080308E31ED268D31EF
:101BE0002000EE0068088400690885006E08800007
:101BF000EC0A0319ED0AE80A0319E90ADB2D06309D
:101C00002000E6070318E70A982D803142280800D3
:101C1000D134A134FF340034003432340034D134B0
:101C2000A1340D3400340034FA340034C934CD34D6
:101C3000FF34CE34FF3432340034C934CD340D3463
:101C4000CE34FF343234003461341134FF34703414
:101C5000FE349034013461341934FF347034FE346E
:101C6000783405346134C934FF3400340034083426
:101C700000348534D134FF3400340034E734033485
:101C8000CD348534FF34003400343C340034D13456
:101C90008534FF34003400343C340034DD341934EE
:101CA000FF3400340034013400341934C1340D34AD
:101CB0000034003401340034DD34D534FF340034D2
:101CC0000034063400340C34003403340034B034AF
:101CD000003401340034FA340734B13400340134B0
:101CE0000034F2340734A534003402340034F434C0
:101CF0000734A734003402340034F6340734A934EE
:101D0000003402340034F8340734AB340034023485
:101D10000034FB340734B234003401340034FC3472
:101D20000734B334003401340034FD340734B434A0
:101D3000003401340034FE340734B5340034013447
:101D40000034FF340734B6340034013400343A34FC
:101D50000F34B734003401340034003400341A3402
:101D6000FE349D34FE34F234FE343334FF346934AF
:101D7000FF349834FF34C334FF34EB34FF34103471
:101D8000003433340034553400347734003498341C
:101D90000034B8340034D9340034FA3400341C34FC
:101DA00001343E3401346234013487340134AF34B9
:101DB0000134D934013407340234393402347034F4
:101DC0000234B0340234FB34023458340334D13496
:101DD000033482340434CA340534003A0319F42E2F
:101DE000803A0319FA2E00347608840077088500BB
:101DF0000008080077088A00760882000800003A88
:101E00000319072F803A03190F2FF70100347608C2
:101E10008400770885001200F700000808008E3162
:101E2000FA26F500F60FF703F70A8E31FA26F400CA
:101E30007508F700740808002100A0007708A100C9
:101E4000A2010830A3002100201C282F2108A2078E
:101E500021002008A4000310240CA0000310210D71
:101E6000A400A1002303A400A3002408031D232F22
:061E700022080800003406
:020000040001F9
:02000E00D40F0D
:02001000FF3AB5
:00000001FF
