:020000040000FA
:1000000000008531EB2DFF348A012000911C41282E
:10001000031022000D0D2000BF003F08031D122811
:100020001030BF0021008E0122008D0120003F080A
:10003000103A031928283F08203A03192D283F08B1
:10004000403A031932283F08803A031937283B28E1
:1000500021002E0822008E003B2821002F082200BC
:100060008E003B282100300822008E003B28210012
:10007000310822008E0020003F0822008D00200061
:100080009110090020008B1322000D082000DD00D4
:1000900021000E082000DE0022008D01D830210052
:1000A0008E0003102100370D2000DF00E00120004A
:1000B0008E1F5C282000E00A20005F08E100600835
:1000C000DF0061042100B7000310370D2000DF00BE
:1000D000E00120000E1E6E282000E00A20005F08CC
:1000E000E1006008DF0061042100B7000310370D54
:1000F0002000DF00E00120000E1F80282000E00A21
:1001000020005F08E1006008DF0061042100B70003
:100110000310370D2000DF00E00120008E1D922823
:100120002000E00A20005F08E1006008DF006104B1
:100130002100B70020005D0822008D0020005E082D
:1001400021008E0020008B1721003608031DB60306
:100150000D30210033020318AC2C80308A00B430FB
:10016000330703188A0A8200C1282B2913298429FE
:100170009F29C529E9290D2A192A5F2A072BA32BB4
:10018000FA2B8830210037052000DD00083A031DD6
:10019000D0281B302100B60001302100B300AE2C66
:1001A0000030210037040319AE2C7F308F31C02777
:1001B00080312000DE007708DD005E040319AE2CDC
:1001C0003330210037052000DD00033A031DEC2801
:1001D00002302100B300AE2C223021003705200070
:1001E000DD00023A031DF82803302100B300AE2CD5
:1001F0001130210037052000DD00013A031D0729D9
:100200000D302100B60004302100B300AE2C443084
:10021000210037052000DD00403A031DAE2C0730D9
:100220002100B300AE2C0030F6006C30F700003037
:100230008E314E26813121002E102100B11631154C
:100240003330210037052000DD00333A0319AE2C8E
:100250002100B301AE2C003021003604031D6329B8
:100260007F308F31C02781312000DF007708DD002B
:10027000E0006008003003190130DD00E100E20118
:10028000E11BE2036108F6006208F7007F308F315E
:1002900083278131200060080319562922000C10A1
:1002A0000C128C1220001810931260293C3021008F
:1002B000AC00AD013C302000EE00EF01200018142E
:1002C0002100B301AE2C8830210037052000DD006D
:1002D000883A0319AE2CDD012100B21E71292000DD
:1002E000DD0A20005D08003003190130E000DD0068
:1002F0005D0C03187D292100B212031C8129210005
:10030000B2162100B301AE2C75308F31C027813178
:100310002000E0007708DD000130F6005D08F700FE
:1003200060088E314E2681312230210037052000B1
:10033000DD00223A0319AE2C2100B301AE2C7B3034
:100340008F31C02781312000E0007708DD00E10017
:100350000030F7006108C024073020006102031854
:10036000BA2921003608031DBA291130B60005301C
:100370002100B3001130210037052000DD00113AC3
:100380000319AE2C2100B301AE2C76308F31C0277B
:1003900081312000E0007708DD000030F6005D08C4
:1003A000F70060088E314E26813121003608031D8A
:1003B000DE290D30B60006302100B30011302100D7
:1003C00037052000DD00113A0319AE2C2100B301DE
:1003D000AE2C77308F31C02781312000E0007708C4
:1003E000DD000030F6005D08F70060088E314E2613
:1003F000813121003608031D022A0D30B600043079
:100400002100B3001130210037052000DD00113A32
:100410000319AE2C2100B301AE2C0130F7002100EE
:100420003408C0246E302100B60008302100B3002B
:10043000AE2C0030210036040319262A8830210012
:1004400037052000DD00803A031D292A2100B30171
:10045000AE2C2230210037052000DD00203A031D9C
:100460003D2A2100340A2000DD0003305D05210013
:10047000B40007302100B300AE2C11302100370545
:100480002000DD00103A031D512A21003403200012
:10049000DD0003305D052100B40007302100B3000A
:1004A000AE2C4430210037052000DD00403A031D0A
:1004B000AE2C2100B50109302100B300AE2C210083
:1004C0003116B116311507302100340203189F2A66
:1004D00003102100350C2000DD00E73EDD008F30E9
:1004E0000318013EE0005D08F6006008F700803068
:1004F0008731492782312000E1002100B00021002E
:1005000035080F3A031D8E2AD5302100AE00DD30AC
:100510002100AF00FF302100B000002B2100351C6E
:10052000982A85302100AE00D1302100AF00002B89
:1005300061302100AE0019302100AF00002B0730E0
:10054000F700210035088731782782312000DD004F
:10055000E0015D086B3EDD0060080318600F863E19
:10056000E0005D08F6006008F70080308731492719
:1005700082312000E1002100AE000730F7002100A9
:1005800035088731782782312000DD00E0015D08E1
:100590006B3EDD0060080318600F863EE000DD0A58
:1005A0000319E00A5D08F6006008F7008030873123
:1005B000492782312000E1002100AF000730F70019
:1005C000210035088731782782312000DD00E001E5
:1005D0005D086B3EDD0060080318600F863EE0009A
:1005E0000230DD070318E00A5D08F6006008F70036
:1005F00080308731492782312000E1002100B0009E
:100600006E302100B6000A302100B300AE2C00305D
:1006100021003604031D0F2B2100B301AE2C8830BE
:10062000210037052000DD00803A031D1B2B073019
:100630002100B300AE2C2230210037052000DD0060
:10064000203A031D3B2B2100350A2000DD000F302E
:100650005D052100B500073021003402031C372B53
:100660000C3021003502031C572BB501572B0930E4
:100670002100B300AE2C1130210037052000DD0031
:10068000103A031D772B210035032000DD000F30C9
:100690005D052100B500073021003402031C732BD7
:1006A0000C3021003502031C572B0B30B5007B307A
:1006B0008F31C02783312000E0007708DD00E100A2
:1006C00007306102031C732B21003508063A031D15
:1006D0006C2BB50AB50A732B21003508073A031DA8
:1006E000732BFE30B50709302100B300AE2C443027
:1006F000210037052000DD00403A031DAE2C21000B
:10070000340EF0392000DD00210035082000DD071F
:100710005D088F31C02783312000E4007708E300B3
:1007200020005D08F60020006308F70064080E252D
:100730002000E4007708E3006E302100B6000B30A3
:100740002100B300AE2C0730210034020318CD2B5A
:10075000210035080F3A031DB62B20006308200046
:10076000DD000030F7005D08C024F32B2100351CAC
:10077000C32B0030F60020006308F70064088E31B8
:100780004E268331F32B0130F60020006308F7007A
:1007900064088E314E268331F32B0630210035025A
:1007A0000318DC2B0130F60020006308F700640812
:1007B0008E314E268331F32B0B3021003502031886
:1007C000EB2B0030F60020006308F70064088E3140
:1007D0004E268331F32B200063082000DD0000301B
:1007E000F7005D08C0246E302100B6000C302100F7
:1007F000B300AE2C2100340EF0392000DD002100C2
:1008000035082000DD0721003608031D0A2C2100D1
:10081000B301AE2C8830210037052000E000803A7B
:10082000031D162C09302100B300AE2C2100B71E89
:100830002C2C2000E30A0319E40A6408803E7D3E64
:10084000031D242CE9306302031C422C09302000D4
:10085000E3070318E40A422C2100371E592CFF300D
:100860002000E307031CE4036408803E7D3E031D73
:100870003B2CE9306302031C422CF7302000E307D5
:10088000031CE40320005D08F60020006308F70065
:1008900064080E252000E4007708E3001F302800DC
:1008A0001D02031C552CF8309D070B302100B300AE
:1008B000AE2C4430210037052000E000403A031DF3
:1008C000A82C21003408073A031D9A2C2100350872
:1008D0000B3A031D9A2C0030F6000030F7007630FA
:1008E0008F31832784310030F6000030F7007730F5
:1008F0008F318327843120006408803E803E031DB1
:10090000832C0730630203189A2C20006308200010
:10091000E000600EF039E1008F31C0278431200003
:10092000E1007708E000F6006108F70075308F31CC
:100930008327843120006308F6006408F700200054
:100940005D088F318327843109302100B300AE2C3C
:10095000FA3028009D00AE2C2100B301210033089D
:100960000030031901302000DD00E000600C0318A6
:10097000BB2C2100B211031CBF2C2100B2150800B2
:100980002000CF007708CE0021003116B1163115B6
:10099000B114073020004F020318E72C1930210052
:1009A000AE00DD302100AF0020004F08E73ED1004F
:1009B0008F300318013ED0005108F6005008F700B0
:1009C00080308731492784312100B0000D2D00305F
:1009D00020004E040319F62C61302100AE000930CE
:1009E0002100AF00C9302100B0000D2D20004F08BC
:1009F000073A031D052DC9302100AE00D13021007A
:100A0000AF00FF302100B0000D2D03302100AE00FB
:100A100059302100AF002100B00008002000D600AE
:100A20007708D5007608D7007030570203186B2D71
:100A30000F30D70557080F3A031D2F2D0830F3004C
:100A40000030F4000030F5000030F6005508F700E3
:100A50005608B7252000D6007708D500B22D200013
:100A60005708013A031D452DE730F3000330F40029
:100A70000130F5000030F6005508F7005608B7259C
:100A80002000D6007708D500B22D2000571C592D24
:100A9000E730F3000330F4000030F5000030F600DA
:100AA0005508F7005608B7252000D6007708D5006E
:100AB000B22DC430F3000930F4007030F500FE3080
:100AC000F60020005508F7005608B7252000D6008C
:100AD0007708D500B22D90302000D7070730F700F7
:100AE00057088731782785312000D800D901580868
:100AF0006B3ED7008630DA0059080318590FDA0721
:100B000003305707D800D901D90D5A08D90758081A
:100B1000F6005908F700803087315B2785312000C7
:100B2000DC007708DB000530D7070318DA0A57081E
:100B3000F6005A08F700803087315B2785312000A6
:100B4000D9007708D800F3005908F4005B08F500D5
:100B50005C08F6005508F7005608B7252000D600B7
:100B60007708D50020005508F70056080800200037
:100B7000CF007708CE007608D1007508D000740841
:100B8000D3007308D2005308803ED4004F08803E43
:100B90005402031DCD2D4E0852020318D42D2000FF
:100BA0005008F7005108EA2D20004F08803ED4007D
:100BB0005108803E5402031DDF2D50084E020318D9
:100BC000E62D20005208F7005308EA2D20004E08B9
:100BD000F7004F080800BF30F6008630F70080307D
:100BE00087315B2785312100A1007708A000C13043
:100BF000A2008630A30021002008A4002108A5003F
:100C0000FF30A007031CA103240825040319682E44
:100C100004302207A400A501A50D2308A507240878
:100C2000F6002508F700803087315B2786312100E8
:100C3000A7007708A6002208F6002308F7008030F6
:100C400087315B2786312100A900A5007708A8001D
:100C5000A40002302207A400A501A50D2308A507C2
:100C60002408F6002508F700803087315B2786319D
:100C70002100A500AB007708A400AA0021002608E7
:100C8000AA002708AB00FF30A607031CA7032A0809
:100C90002B040319622E2808F6002908F70080307B
:100CA0008731492786312100AA00240884002508BD
:100CB00085002A088000A80A0319A90AA40A0319B2
:100CC000A50A3E2E06302100A2070318A30AFB2D19
:100CD000883100280800D134A134FF3400340034B6
:100CE00064340034D134A1340D3400340034F4348D
:100CF0000134C934CD34FF349C34FF3464340034BF
:100D0000C934CD340D349C34FF3464340034613440
:100D10001134FF34E034FC342034033461341934AA
:100D2000FF347034FE34C43409346134C934FF34C0
:100D300000340034083400348534D134FF340034B6
:100D40000034E7340334CD348534FF3400340034C8
:100D50003C340034D1348534FF34003400343C3426
:100D600000341934C1340D340034003401340034FB
:100D7000DD34D534FF3400340034073400340C340F
:100D8000003403340034B134003401340034F93415
:100D90000F34B234003401340034F1340F346A3487
:100DA000003402340034F3340F346C340034023431
:100DB0000034F5340F346E34003402340034F73428
:100DC0000F34AC34003402340034FA340F34B3340A
:100DD000003401340034FB340F34B43400340134B3
:100DE0000034FC340F34B534003401340034FD34A5
:100DF0000F34B634003401340034FE340F34B734C9
:100E0000003401340034FF340F34B834003401347A
:100E1000003400340034D534FD34C134FE34593448
:100E2000FF34CF34FF343034003486340034D334CC
:100E300000341A3401345C3401349C340134DA3423
:100E4000013416340234513402348C340234C73441
:100E50000234023403343F3403347D340334BD346C
:100E60000334013404344834043494340434E53411
:100E700004343F340534A4340534173406349E3426
:100E80000634443407341E3408345D340934AB343A
:100E90000B34003A0319502F803A0319562F0034AF
:100EA00076088400770885000008080077088A0023
:100EB000760882000800003A0319632F803A03196C
:100EC0006B2FF70100347608840077088500120044
:100ED000F7000008080087315627F500F60FF703E2
:100EE000F70A87315627F4007508F70074080800E0
:100EF0002000E5007708E600E7010830E800200060
:100F0000651C842F6608E70720006508E9000310C8
:100F1000690CE5000310660DE900E6006803E900CE
:0C0F2000E8006908031D7F2F6708080027
:101000002000C001C101FF30C2007F30C300FF30AB
:10101000C4007F30C5006A30210099000E308C007A
:1010200022008C0121008D0122008D0121008E0102
:10103000063023008C0021001E169E1723008E010F
:10104000053020009800F4302600990024309800E4
:101050000B309A00053020009C00FA309B002100E4
:101060009114373028009E00FA309D00C0302000D7
:101070008B00093021009D002000931D52288031F3
:1010800042208831200018185028FF302100B1007C
:1010900003302100AE0059302100B0002100AF0024
:1010A000200093112000931E432D20004008C6000D
:1010B0000F39031DFC2B4208F7004308462520008A
:1010C000C7007708C6007230C0272000C900770823
:1010D000C8004608CA004708CB0048084A07200055
:1010E000EA0020004B082000EB002000490803180C
:1010F000490A03197D282000EB077B30C027200018
:10110000C7007708C600C800073048020318132A32
:101110002100311320004008C6004108C700C80163
:10112000C9014908803E803E031DA02800304802C6
:10113000031DA028E1304702031DA028003046020D
:10114000031C162A7B30C0272000AD007708AC00B6
:10115000AE0007302E0203180F2A7630C027200079
:10116000AD007708AC00AF007730C0272000AD009D
:101170007708AC00AC0A0319AD0A07302F02031C34
:10118000C3280630AF0020004D08C0272000B10062
:101190007708B0002E0EF039B20003102F0DB30007
:1011A00032072000CD004E302000B300C0272000C1
:1011B000B4007708B3000314B41F0310031CED2818
:1011C0004F30B500C0272000B6007708B500B3093E
:1011D000B409B30A0319B40AF22820003008B50094
:1011E0003108B60020003308B7003408B8002D02DB
:1011F000031DFC2837082C02031C802920002F081F
:10120000063A03190D295030B300C0272000B4005E
:101210007708B3003404031D65290F302000B2079E
:101220003208C0272000B3007708B200AE000730B4
:101230002E0203183F292E0EF039B200C0272000DD
:10124000B3007708B200F6003308F7007530832743
:101250000030F6000030F700763083270030F600CB
:101260000030F7007730832720002E08B200B3014A
:101270003208F6003308F7007B30832764294F30AB
:101280002000B200C0272000B3007708B200F600AB
:101290003308F700753083270730F6000030F70079
:1012A0007B308327083020002E02031C6429003085
:1012B000F6000030F7007F30832722000C100C125C
:1012C0008C122000181093120F2A4F302000AE000D
:1012D000C0272000B2007708AE00F6003208F70001
:1012E000753083272000AC01AD01AF0A2F08AE0096
:1012F000B2012E08F6003208F70076308327082A5C
:1013000020002D0EF039AF002C0EAE000F39AF04C7
:10131000AE060310AE0DAF0D0310AE0DAF0D2030B5
:10132000B200B301B401B901BA01200038082F029C
:10133000031D9C2937082E02031CBD2920003708F5
:10134000AE023808031C380FAF023508BB00360860
:10135000BC000030BC1BFF30BE00BD003B08B20724
:101360003C0803183C0FB3073D0803183D0FB407B2
:101370003E0803183E0FB907D52920003008BB00EE
:101380003108BC000030BC1BFF30BE00BD003B0874
:10139000B2073C0803183C0FB3073D0803183D0F84
:1013A000B4073E0803183E0FB9072000BA0A4030C0
:1013B0003A02031C9529320E0F39B200330EB300E6
:1013C000F039B204B306340EB400F039B304B406F5
:1013D000390EB900F039B404B906F030B919B904BE
:1013E0000310B91B0314B90CB40CB30CB20C0310EA
:1013F000B91B0314B90CB40CB30CB20C3208AE0018
:101400003308AF002E08F6002F08F7007530832749
:1014100020002C08F6002D08F700773083272000E5
:10142000C001C101162A2000C001C1012100321DE6
:10143000242AB21D242A61302100AE00113021007F
:10144000AF00FF302100B0002100B21C332A22007F
:101450000C128C123C302000EE00EF013C302100D9
:10146000AC00AD01FC2B7530C0272000A700770829
:10147000A9007130C0272000A8007708AB007A309F
:10148000C0272000AA007708AD00AC0020006E083D
:101490006F0403194F2AFF30EE07031CEF032100EE
:1014A0002C082D040319582AFF30AC07031CAD0388
:1014B0002000AD0122000C1E5F2A2000AD0A200092
:1014C0002D08003003190130AA00AD002D0C0318BF
:1014D0006B2A2100B113031C6F2A2100B1172000D1
:1014E000AD0122008C1E762A2000AD0A20002D08B6
:1014F000003003190130AA00AD002D0C0318822A18
:101500002100B111031C862A2100B11522000C1EF6
:10151000B52A20002708803EAE0020006B08803EE0
:1015200020002E02031D982A20006A0820002902AC
:101530000318E42A20002C080319B52A2B082902D5
:10154000AD002808031C280A2702AA0020006D0805
:10155000803E2000AE002A08803E2E02031DB32AE2
:101560002D0820006C02031CE42A22008C1E422B52
:1015700020006B08803E2000AE002708803E2E022F
:10158000031DC52A290820006A020318E42A200046
:101590002C080319422B2B082907AD002708AA00A5
:1015A00028080318280FAA072A08803EAE0020004A
:1015B0006D08803E20002E02031DE22A20006C08E8
:1015C00020002D020318422B7830C0272000AA00EB
:1015D0007708AD002A0EF0392000EF0020002D0E14
:1015E0002000EE000F39EF04EE060310EE0DEF0DB4
:1015F0000310EE0DEF0D6E0E0F392000AD00200030
:101600006F0E2000AA00F039AD04AA062D082000B4
:10161000EE0220002A08031C2A0A0319112B2000BD
:10162000EF027930C0272000AA007708AD002A0E0B
:10163000F0392100AD0020002D0E2100AC000F3943
:10164000AD04AC060310AC0DAD0D0310AC0DAD0D2B
:101650002C0E0F392000AD0021002D0E2000AA0015
:10166000F039AD04AA062D082100AC0220002A089A
:10167000031C2A0A03193E2B2100AD0222000C1282
:101680008C12FC2B22000C1AFC2B8C1AFC2B7030B9
:10169000C0272000AA007708AD000310A81B031480
:1016A000A80CAB0C0310A81B0314A80CAB0C2D0842
:1016B0002907AE002708AF002A0803182A0FAF0732
:1016C0002F08803EB10020006B08803E20003102D0
:1016D000031D6E2B20006A0820002E020318AB2B7E
:1016E00020002C0803198B2B2B082902AE00280898
:1016F000031C280A2702AF0020006D08803E20004E
:10170000B1002F08803E3102031D892B2E082000D6
:101710006C02031CAB2B20006E086F040319A82B6E
:101720002000AE012100B11F972B2000AE0A20003F
:101730006E0801392000AF00B100AE062E0C031870
:10174000A32B2100B113031CA72B2100B117FC2BE5
:1017500022000C16FC2B20002D082902AD002A08BF
:10176000031C2A0A2702AA0020006B08803E2000E2
:10177000B0002A08803E3002031DC12B2D08200036
:101780006A020318FC2B20002C080319DD2B2B0800
:10179000A90728080318280FA7072708803EB000CC
:1017A00020006D08803E20003002031DDB2B20004E
:1017B0006C0820002902031CFC2B21002C082D049E
:1017C0000319FA2B2000A9012100B11DE92B2000EB
:1017D000A90A21002C0801392000A700AB00A906A6
:1017E000290C0318F52B2100B111031CF92B210042
:1017F000B115FC2B22008C1620004008C6000F30CB
:10180000C6054608073A031D212D21003117200087
:101810004408F700450846252000C7007708C600A1
:101820007330C0272000C9007708C8004608CA00E6
:101830004708CB0048084A072000EC0020004B086E
:101840002000ED00200049080318490A03192A2C3A
:101850002000ED0720004308C600C7014608C80065
:10186000F83048020318512C09304802031C512C4F
:101870007A30C0272000C7007708C6004704031944
:101880004E2C4508C600C7014608C800F83048027B
:101890000318512C09304802031C512C2000C601AA
:1018A000542C01302000C60020004608C700470C19
:1018B00003185C2C2100B210031C602C2100B21410
:1018C0007430C0272000C7007708C60047040319FA
:1018D000D02C7530C0272000C9007708C800200030
:1018E0006A082000CA0020006B082000CB004808CE
:1018F0004A02C8004908031C490A4B02C9000314E4
:10190000C91F0310031C892CC809C909C80A031977
:10191000C90A03142000C71F0310031CB22CC609F8
:10192000C709C60A0319C70A4708803ECC00490800
:10193000803E4C02031D9E2C480846022000CA012E
:10194000031C4A144A08003003190130CB00CA00B6
:101950004A0C0318AD2C21003211031CB12C2100BC
:101960003215D02C20004908803ECC004708803E2C
:101970004C02031DBD2C460848022000CA01031C6E
:101980004A144A08003003190130C600CA004A0C44
:101990000318CC2C21003211031CD02C210032154D
:1019A0002100B21D0A2DB21CE12C11302100AE0025
:1019B000CB302100AF00FF302100B00021003117F3
:1019C0000A2D2000C6012100B21EE82C2000C60A04
:1019D00020004608003003190130C800C600460C3C
:1019E0000318F42C2100B110031CF82C2100B114B1
:1019F0002100B21E032D0130F60020006C08F70014
:101A00006D084E260A2D0130F60020006A08F70006
:101A10006B084E262100B218122D3219122D20000B
:101A2000C601152D01302000C60020004608C80060
:101A3000480C03181D2D22000C10031C212D220020
:101A40000C142000C00A0319C10A4008C600461C35
:101A5000352D4208F700430812262000C3007708FE
:101A6000C200053021009D00412D20004408F700F0
:101A7000450812262000C5007708C400093021005F
:101A80009D002000931264003C2808002000A00064
:101A90007708A1002030A200A301A401A601210E15
:101AA0000F39A500200EA700F039A504A7060310E2
:101AB000A70CA50C3F30A505A7012508A900031018
:101AC000200CA500A7010310A70CA50C0310A70C60
:101AD000A50C1F302505A100A0012108A500250A9D
:101AE000A1000230F7002108873178278D312000CE
:101AF000A000A7012008093EA0008730A100270808
:101B00000318270FA1070230F7002508873178272F
:101B10008D312000A700A8012708093EA7008730C3
:101B2000A50028080318280FA507A80120002908E8
:101B30002802031CBE2D2708F6002508F700803078
:101B400087315B278D312000AB007708AA00AD00FC
:101B50002B08AC000030AC1BFF30AE00AF002D08EE
:101B6000A2072C0803182C0FA3072F0803182F0F08
:101B7000A4072E0803182E0FA607E12D2000200829
:101B8000F6002108F700803087315B278D31200077
:101B9000AB007708AA00AD002B08AC000030AC1BEE
:101BA000FF30AE00AF002D08A2072C0803182C0F41
:101BB000A3072F0803182F0FA4072E0803182E0FB2
:101BC000A6072000A80A40302802031C962D220EEA
:101BD0000F39A100230EA000F039A104A006240EA5
:101BE000A500F039A004A506260EA700F039A5042B
:101BF000A706F030A719A7040310A71B0314A70C0E
:101C0000A50CA00CA10C0310A71B0314A70CA50C7A
:101C1000A00CA10C2108A2002008A3002208F700B4
:101C2000230808002000A0007708A10021009D18CB
:101C3000162E1D102000210E0F39A200200EA30029
:101C4000F039A204A3060310A30CA20C0310A30CEA
:101C5000A20C2208A1022308031C230FA0022100CA
:101C60001C082000A200A3012208A400A601210054
:101C70001B082000A200A3012208A6042308A40434
:101C80002608A2002408A3002208A107230803189D
:101C9000230FA0072108F700200808002000A0005B
:101CA0007708A1007608A2000314A01F0310031CEC
:101CB000622E210031122000A109A009A10A0319F6
:101CC000A00A642E210031160030200022040319DE
:101CD0006C2E2100B112311520002008803E7D3E7F
:101CE000031D742EE8302102031CE02E2000210881
:101CF000A3002008A4000310240CA600230CA500B8
:101D00000310240CA700230CA9000310A70CA90C96
:101D10002908A50727080318270FA607250E0F393E
:101D2000A900260EA700F039A904A7062908A507CF
:101D300027080318270FA6072608A900A7012908C6
:101D4000A50727080318270FA6070310A60CA50C44
:101D50000310A60CA50C0310A60CA50C0310250D52
:101D6000A900260DA7000310A90DA70D0310A90DAA
:101D7000A70D0310250DA800260DAB002808A90704
:101D80002B0803182B0FA7072908A3022708031CF9
:101D9000270FA4020630A3070318A40A230E0F3945
:101DA000A900240EA700F039A904A70629082507D1
:101DB000A1002608A00027080318270FA007A201EA
:101DC00020002008803E803E031DE82E6430210262
:101DD000031C1C2F20002108A3002008A400A5013B
:101DE00020002408803E803E031DF82E643023022C
:101DF000031C012F9C302000A307031CA403A50A89
:101E0000F02E20002308A1002408A0000F30A50513
:101E10002508E73EA5008F300318013EA3002508E2
:101E2000F6002308F7008030873149278F312000E2
:101E3000A4002100AE001F2FFF302100AE002000C3
:101E40002008803E803E031D272F0A302102031800
:101E5000342F20002208031D342F21002E082000DB
:101E6000A300FF3A03196A2F20002108A3002008CD
:101E7000A400A50120002408803E803E031D422FBF
:101E80000A302302031C4B2FF6302000A307031C4B
:101E9000A403A50A3A2F20002308A1002408A000CB
:101EA0002508E73EA5008F300318013EA300250852
:101EB000F6002308F7008030873149278F31200052
:101EC000A4002100AF002000220803196D2F21007B
:101ED0002F106D2FFF302100AF0020002108A2003D
:101EE000E73EA1008F300318013EA0002108F60054
:101EF0002008F7008030873149278F312000A20069
:101F00002100B00008002000A7007708A90076088B
:101F1000A8002708C0272000AB007708AA002806E1
:101F2000031D962F2B0829060319BF2F031020002D
:101F3000270DAA0020002A0823009100200028086D
:101F40002300930015139513151520008B1355309E
:101F500023009600AA309600951420008B172300CA
:101F6000151123009518B12F200012122000290806
:101F7000A800A9012A08A700AA0A271C9A2F08006E
:101F80002000A000A101A2010310200DA300200049
:101F9000230823009100151395131514130820002E
:101FA000A000A4012008A600A5012208A000A40109
:101FB00020082504A10024082604A2002308A0006C
:101FC000A30A201CC72F2108F700220808000334A9
:101FD000B7340D342534B1346134413437340134ED
:101FE000213400340034003400343C3400343C34B8
:101FF0000034003400340034003400340034003441
:020000040001F9
:02000E00D40F0D
:02001000FF3AB5
:00000001FF
