:020000040000FA
:1000000000008D31892DFF348A012000911C412888
:10001000031022000D0D2000BF003F08031D122811
:100020001030BF0021008E0122008D0120003F080A
:10003000103A031928283F08203A03192D283F08B1
:10004000403A031932283F08803A031937283B28E1
:1000500021002D0822008E003B2821002E082200BE
:100060008E003B2821002F0822008E003B28210013
:10007000300822008E0020003F0822008D00200062
:10008000911009002000C001C101FF30C2007F3083
:10009000C300FF30C4007F30C5006A3021009900E2
:1000A0000E308C0022008C0121008D0122008D0178
:1000B00021008E01063023008C0021001E169E17A1
:1000C00023008E01200098131813981618169815FF
:1000D00018151814F43025009200243091000B30CC
:1000E0009300053020009C00FA309B002100911401
:1000F0007230280097007F30D0272000A7007708B3
:10010000A900A800280C0318872828001711031C31
:100110008B2828001715FA302800960037309E00EB
:10012000FA309D00C03020008B00093021009D0076
:100130002000931DAE288831002080312800171937
:10014000AC28FF302100B00003302100AD00593051
:100150002100AF002100AE00200093112000111DEE
:10016000CA282000C6012100301DB8282000C60A78
:1001700020004608003003190130C700C600460CB5
:100180000318C42821003011031CC8282100301591
:10019000200011112000931C512D2000C00A0319CA
:1001A000C10A401CDF284208F7004308202620002F
:1001B000C3007708C200053021009D00EB28200015
:1001C0004408F700450820262000C5007708C40031
:1001D000093021009D00200040080F39031D4F2DDC
:1001E0004208F700430854252000C7007708C600DE
:1001F0007430D0272000C9007708C8004608CA001C
:100200004708CB0048084A072100A50020004B08FA
:100210002100A600200049080318490A03191229E1
:100220002100A60720004408F700450854252000B7
:10023000C7007708C6007530D0272000C9007708AE
:10024000C8004608CA004708CB0048084A072100F2
:10025000A70020004B082100A8002000490803182F
:10026000490A031935292100A80720004308C600C0
:10027000C7014608C800F830480203185C29093055
:100280004802031C5C297D30D0272000C700770876
:10029000C6004704031959294508C600C701460886
:1002A000C800F830480203185C2909304802031CD2
:1002B0005C292000C6015F2901302000C600200013
:1002C0004608C700470C0318672922000C10031CBE
:1002D0006B2922000C1422000C1C852911302100EE
:1002E000AD00CB302100AE00FF302100AF00210077
:1002F000B00022000C128C123C302100AB00AC018B
:100300003C302100A900AA014F2D7E30D0272000CB
:10031000C7007708C600C800063048020318BE2A86
:100320002100301320004008C6004108C700C80162
:10033000C9014908803E803E031DA82900304802BB
:10034000031DA829EA304702031DA8296030460290
:10035000031CC32A7E30D0272000AD007708AC00F4
:10036000AE0006302E020318BA2A7830D0272000BB
:10037000AD007708AC00AF007930D0272000AD0089
:100380007708AC00AC0A0319AD0A09302F02031C30
:10039000CB290830AF0020002E0EF039B00003103A
:1003A0002E0DB100B0072E083007AE0003102F0D40
:1003B000B000AE072E0AB000D0272000B1007708A9
:1003C000B00002302E07B200D0272000B30077081B
:1003D000B20031082D02031DEF2930082C02031C46
:1003E0001D2A20003208F6003308F70077309327E3
:1003F00020002F08083A0319082A03302E07B400FA
:10040000D0272000B5007708B4003504031D0F2A5B
:100410000630F6000030F7007E309327BA2A20001D
:10042000AC01AD01AF0A2F08B400B5013408F600E5
:100430003508F70078309327B32A7C30D027200086
:10044000B4007708AF0034040319B32A2E08D0276C
:100450002000AF007708AE002D0EF039B5002C0E4D
:10046000B4000F39B504B4060310B40DB50D031074
:10047000B40DB50D2030B600B701B801B901BA010D
:10048000200031083502031D472A30083402031CBE
:10049000682A20003008B4023108031C310FB5026D
:1004A0003208BB003308BC000030BC1BFF30BE006C
:1004B000BD003B08B6073C0803183C0FB7073D08D2
:1004C00003183D0FB8073E0803183E0FB907802AEE
:1004D00020002E08BB002F08BC000030BC1BFF30E2
:1004E000BE00BD003B08B6073C0803183C0FB70729
:1004F0003D0803183D0FB8073E0803183E0FB90723
:100500002000BA0A40303A02031C402A360E0F3946
:10051000B600370EB700F039B604B706380EB8008B
:10052000F039B704B806390EB900F039B804B90685
:10053000F030B919B9040310B91B0314B90CB80C85
:10054000B70CB60C0310B91B0314B90CB80CB70CDC
:10055000B60C3608AE003708AF002E08F6002F089C
:10056000F7007730932720002C08F6002D08F700BD
:10057000793093272000C001C101C32A2100301720
:100580002000C001C1017630D0272000C7007708C5
:10059000C60047040319332B7730D0272000C90049
:1005A0007708C800210025082000CA00210026087D
:1005B0002000CB0048084A02C8004908031C490A29
:1005C0004B02C9000314C91F0310031CEC2AC809FD
:1005D000C909C80A0319C90A03142000C71F031058
:1005E000031C152BC609C709C60A0319C70A470801
:1005F000803ECC004908803E4C02031D012B480878
:1006000046022000CA01031C4A144A08003003199C
:100610000130CB00CA004A0C0318102B22000C102A
:10062000031C142B22000C14332B20004908803E9D
:10063000CC004708803E4C02031D202B4608480290
:100640002000CA01031C4A144A0800300319013073
:10065000C600CA004A0C03182F2B22000C10031CE2
:10066000332B22000C147730D0272000A700770806
:10067000A9007330D0272000A8007708AB007D3098
:10068000D0272000AA007708AD00AC00210029087F
:100690002A0403194F2BFF30A907031CAA032100CA
:1006A0002B082C040319582BFF30AB07031CAC0399
:1006B0002000AD0122000C1E5F2B2000AD0A20009F
:1006C0002D08003003190130AA00AD002D0C0318CD
:1006D0006B2B2100B013031C6F2B2100B0172000DF
:1006E000AD0122008C1E762B2000AD0A20002D08C3
:1006F000003003190130AA00AD002D0C0318822B25
:100700002100B011031C862B2100B01522000C1E05
:10071000B52B20002708803EAE0021002608803E31
:1007200020002E02031D982B2100250820002902FD
:100730000318E42B20002C080319B52B2B082902E1
:10074000AD002808031C280A2702AA002100280857
:10075000803E2000AE002A08803E2E02031DB32BEF
:100760002D0821002702031CE42B22008C1E422CA2
:1007700021002608803E2000AE002708803E2E0281
:10078000031DC52B2908210025020318E42B200096
:100790002C080319422C2B082907AD002708AA00B2
:1007A00028080318280FAA072A08803EAE00210057
:1007B0002808803E20002E02031DE22B210027087E
:1007C00020002D020318422C7A30D0272000AA00E6
:1007D0007708AD002A0EF0392100AA0020002D0E66
:1007E0002100A9000F39AA04A9060310A90DAA0D1A
:1007F0000310A90DAA0D290E0F392000AD0021000C
:100800002A0E2000AA00F039AD04AA062D08210006
:10081000A90220002A08031C2A0A0319112C21000E
:10082000AA027B30D0272000AA007708AD002A0E4C
:10083000F0392100AC0020002D0E2100AB000F3953
:10084000AC04AB060310AB0DAC0D0310AB0DAC0D3F
:100850002B0E0F392000AD0021002C0E2000AA0025
:10086000F039AD04AA062D082100AB0220002A08A9
:10087000031C2A0A03193E2C2100AC0222000C1290
:100880008C12FC2C22000C1AFC2C8C1AFC2C7230C2
:10089000D0272000AA007708AD000310A81B03147E
:1008A000A80CAB0C0310A81B0314A80CAB0C2D0850
:1008B0002907AE002708AF002A0803182A0FAF0740
:1008C0002F08803EB00021002608803E2000300224
:1008D000031D6E2C2100250820002E020318AB2CCE
:1008E00020002C0803198B2C2B082902AE002808A5
:1008F000031C280A2702AF0021002808803E2000A0
:10090000B0002F08803E3002031D892C2E082100E4
:100910002702031CAB2C210029082A040319A82C48
:100920002000AE012100B01F972C2000AE0A21004C
:10093000290801392000AF00B000AE062E0C0318C4
:10094000A32C2100B013031CA72C2100B017FC2CF2
:1009500022000C16FC2C20002D082902AD002A08CC
:10096000031C2A0A2702AA0021002608803E200034
:10097000B1002A08803E3102031DC12C2D08210040
:1009800025020318FC2C20002C080319DD2C2B0851
:10099000A90728080318280FA7072708803EB100D9
:1009A00021002808803E20003102031DDB2C21009D
:1009B000270820002902031CFC2C21002B082C04F2
:1009C0000319FA2C2000A9012100B01DE92C2000F8
:1009D000A90A21002B0801392000A700AB00A906B5
:1009E000290C0318F52C2100B011031CF92C21004F
:1009F000B015FC2C22008C162000991F4F2D2200D0
:100A00000C1C0F2D23001D1F0F2D61302100AD0088
:100A100011302100AE00FF302100AF00382D200042
:100A2000C60123001E1F162D2000C60A20004608FE
:100A3000003003190130C800C600460C0318222DEF
:100A40002100B010031C262D2100B01423001E1F0E
:100A5000312D0130F60021002708F70028085E2616
:100A6000382D0130F60021002508F70026085E2603
:100A70002000C60123001D1F3F2D2000C60A2000B4
:100A80004608003003190130C800C600460C0318A0
:100A90004B2D23001D13031C4F2D23001D17200079
:100AA00093106400982808002000A0007708A10097
:100AB0002030A200A301A401A601210E0F39A50038
:100AC000200EA700F039A504A7060310A70CA50C5B
:100AD0003F30A505A7012508A9000310200CA5009B
:100AE000A7010310A70CA50C0310A70CA50C1F3021
:100AF0002505A100A0012108A500250AA1000230BA
:100B0000F70021088F31172785312000A000A701A9
:100B10002008A83EA0008E30A10027080318270F48
:100B2000A1070230F70025088F31172785312000F3
:100B3000A700A8012708A83EA7008E30A500280816
:100B40000318280FA507A801200029082802031C64
:100B5000CC2D2708F6002508F70080308E31FA26C4
:100B600085312000AB007708AA00AD002B08AC004F
:100B70000030AC1BFF30AE00AF002D08A2072C08E0
:100B800003182C0FA3072F0803182F0FA4072E08F4
:100B900003182E0FA607EF2D20002008F6002108CD
:100BA000F70080308E31FA2685312000AB007708BF
:100BB000AA00AD002B08AC000030AC1BFF30AE002B
:100BC000AF002D08A2072C0803182C0FA3072F082D
:100BD00003182F0FA4072E0803182E0FA6072000B6
:100BE000A80A40302802031CA42D220E0F39A100B0
:100BF000230EA000F039A104A006240EA500F039B0
:100C0000A004A506260EA700F039A504A706F0301B
:100C1000A719A7040310A71B0314A70CA50CA00C6D
:100C2000A10C0310A71B0314A70CA50CA00CA10C6E
:100C30002108A2002008A3002208F70023080800CA
:100C40002000A0007708A10021009D1421009D181C
:100C5000262E1D102000210E0F39A200200EA30009
:100C6000F039A204A3060310A30CA20C0310A30CDA
:100C7000A20C2208A1022308031C230FA0022100BA
:100C80001C082000A200A3012208A400A601210044
:100C90001B082000A200A3012208A6042308A40424
:100CA0002608A2002408A3002208A107230803188D
:100CB000230FA0072108F700200808002000A0004B
:100CC0007708A1007608A2000314A01F0310031CDC
:100CD000722E210030122000A109A009A10A0319D7
:100CE000A00A742E210030160030200022040319BF
:100CF0007C2E2100B012301120002008803E7D3E65
:100D0000031D842EE8302102031CF02E2000210850
:100D1000A3002008A4000310240CA600230CA500A7
:100D20000310240CA700230CA9000310A70CA90C86
:100D30002908A50727080318270FA607250E0F392E
:100D4000A900260EA700F039A904A7062908A507BF
:100D500027080318270FA6072608A900A7012908B6
:100D6000A50727080318270FA6070310A60CA50C34
:100D70000310A60CA50C0310A60CA50C0310250D42
:100D8000A900260DA7000310A90DA70D0310A90D9A
:100D9000A70D0310250DA800260DAB002808A907F4
:100DA0002B0803182B0FA7072908A3022708031CE9
:100DB000270FA4020630A3070318A40A230E0F3935
:100DC000A900240EA700F039A904A70629082507C1
:100DD000A1002608A00027080318270FA007A201DA
:100DE00020002008803E803E031DF82E6430210242
:100DF000031C2C2F20002108A3002008A400A5011B
:100E000020002408803E803E031D082F643023020A
:100E1000031C112F9C302000A307031CA403A50A68
:100E2000002F20002308A1002408A0000F30A505F2
:100E30002508353EA5008F300318013EA300250884
:100E4000F6002308F70080308E31E8268731200035
:100E5000A4002100AD002F2FFF302100AD002000A5
:100E60002008803E803E031D372F0A3021020318E0
:100E7000442F20002208031D442F21002D082000AC
:100E8000A300FF3A03197A2F20002108A3002008AD
:100E9000A400A50120002408803E803E031D522F9F
:100EA0000A302302031C5B2FF6302000A307031C2B
:100EB000A403A50A4A2F20002308A1002408A000AB
:100EC0002508353EA5008F300318013EA3002508F4
:100ED000F6002308F70080308E31E82687312000A5
:100EE000A4002100AE002000220803197D2F21005C
:100EF0002E107D2FFF302100AE0020002108A2001F
:100F0000353EA1008F300318013EA0002108F600F5
:100F10002008F70080308E31E82687312000A200BB
:100F20002100AF0008002000A7007708A90076087C
:100F3000A8002708D0272000AB007708AA002806C1
:100F4000031DA62F2B0829060319CF2F03102000FD
:100F5000270DAA0020002A0823009100200028085D
:100F60002300930015139513151520008B1355308E
:100F700023009600AA309600951420008B172300BA
:100F8000151123009518C12F2000121220002908E6
:100F9000A800A9012A08A700AA0A271CAA2F08004E
:100FA0002000A000A101A2010310200DA300200039
:100FB000230823009100151395131514130820001E
:100FC000A000A4012008A600A5012208A000A401F9
:100FD00020082504A10024082604A2002308A0005C
:100FE000A30A201CD72F2108F7002208080000348C
:100FF0000034003400343C3400343C3400340034D9
:1010000020008B1322000D082000DC0021000E08B8
:101010002000DD0022008D01D83021008E00031059
:101020002100350D2000DE00DF0120008E1F1A2870
:101030002000DF0A20005E08E0005F08DE00600498
:101040002100B5000310350D2000DE00DF01200077
:101050000E1E2C282000DF0A20005E08E0005F083A
:10106000DE0060042100B5000310350D2000DE0015
:10107000DF0120000E1F3E282000DF0A20005E084E
:10108000E0005F08DE0060042100B5000310350DAC
:101090002000DE00DF0120008E1D50282000DF0A26
:1010A00020005E08E0005F08DE0060042100B5005B
:1010B00020005C0822008D0020005D0821008E00C9
:1010C00020008B1721003408031DB4030D302100CC
:1010D000310203187B2C88308A00723031070318E4
:1010E0008A0A82007F28E928D12843295E29842999
:1010F000A829CC29D8291C2AB52A5E2BA72B8830F1
:10110000210035052000DC00083A031D8E281B3025
:101110002100B40001302100B1007D2C00302100FD
:10112000350403197D2C7F308731D027883120008A
:10113000DD007708DC005D0403197D2C33302100CD
:1011400035052000DC00033A031DAA2802302100E7
:10115000B1007D2C2230210035052000DC00023A50
:10116000031DB62803302100B1007D2C1130210071
:1011700035052000DC00013A031DC5280D30210093
:10118000B40004302100B1007D2C4430210035052D
:101190002000DC00403A031D7D2C07302100B10007
:1011A0007D2C0030F6006B30F700003086315E2673
:1011B000883121002D102100B01630153330210068
:1011C00035052000DC00333A03197D2C2100B101E4
:1011D0007D2C003021003404031D22297F3087310B
:1011E000D02788312000DE007708DC00DF005F08B0
:1011F000003003190130DC00E000E101E01BE103F5
:101200006008F6006108F7007F3087319327893145
:1012100020005F080319152922000C100C128C12F3
:1012200028001711200093101F293C302100AB002B
:10123000AC013C302100A900AA01280017152100AB
:10124000B1017D2C8830210035052000DC00883A72
:1012500003197D2CDC0123001E1F30292000DC0A2D
:1012600020005C08003003190130DF00DC005C0C5A
:1012700003183C2923001E13031C402923001E17BA
:101280002100B1017D2C77308731D02789312000B2
:10129000DF007708DC000130F6005C08F7005F082B
:1012A00086315E2689312230210035052000DC00A0
:1012B000223A03197D2C2100B1017D2C7E3087312B
:1012C000D02789312000DF007708DC00E000003003
:1012D000F70060088F240630200060020318792987
:1012E00021003408031D79291130B4000530210094
:1012F000B1001130210035052000DC00113A03193E
:101300007D2C2100B1017D2C78308731D0278931A7
:101310002000DF007708DC000030F6005C08F700F2
:101320005F0886315E26893121003408031D9D291E
:101330000D30B40006302100B10011302100350518
:101340002000DC00113A03197D2C2100B1017D2C15
:1013500079308731D02789312000DF007708DC0021
:101360000030F6005C08F7005F0886315E268931A0
:1013700021003408031DC1290D30B40004302100C0
:10138000B1001130210035052000DC00113A0319AD
:101390007D2C2100B1017D2C0130F70021003208A5
:1013A0008F246E302100B40008302100B1007D2C64
:1013B0000030210034040319E52988302100350567
:1013C0002000DC00803A031DE8292100B1017D2CBA
:1013D0002230210035052000DC00203A031DFA29C7
:1013E0002100B20A073032020318B201073021008F
:1013F000B1007D2C1130210035052000DC00103AB1
:10140000031D0E2A2100B20307303202031C0A2AF0
:101410000630B20007302100B1007D2C443021009D
:1014200035052000DC00403A031D7D2C2100B3016E
:1014300009302100B1007D2C21003016B016301586
:1014400006302100320203184D2A2100331C2F2AB6
:1014500085302100AD00D1302100AE00352A613049
:101460002100AD0019302100AE0003102100330C23
:101470002000DC00353EDC008F300318013EDF0029
:101480005C08F6005F08F70080308E31E8268A316C
:101490002000E0002100AF00AE2A0730F700210055
:1014A00033088F3117278A312000DC00DF015C0808
:1014B000093EDC005F0803185F0F8E3EDF005C080A
:1014C000F6005F08F70080308E31E8268A31200070
:1014D000E0002100AD000730F700210033088F3114
:1014E00017278A312000DC00DF015C08093EDC00A0
:1014F0005F0803185F0F8E3EDF00DC0A0319DF0A66
:101500005C08F6005F08F70080308E31E8268A31EB
:101510002000E0002100AE000730F7002100330872
:101520008F3117278A312000DC00DF015C08093E7B
:10153000DC005F0803185F0F8E3EDF000230DC071F
:101540000318DF0A5C08F6005F08F70080308E3170
:10155000E8268A312000E0002100AF006E30210033
:10156000B4000A302100B1007D2C00302100340489
:10157000031DBD2A2100B1017D2C883021003505D5
:101580002000DC00803A031DC92A07302100B10089
:101590007D2C2230210035052000DC00203A031D7F
:1015A000EA2A2100B30A0630210032020318DF2A9A
:1015B000133021003302031CE62AB301E62A0D3062
:1015C00021003302031C082BB301082B0930210032
:1015D000B1007D2C1130210035052000DC00103ACF
:1015E000031D282B2100B30306302100320203180B
:1015F000012B133021003302031C242B1230B300C3
:10160000242B0D3021003302031C082B0C30B300B7
:101610007E308731D0278B312000DF007708DC0057
:10162000E00006306002031C242B21003308063A38
:10163000031D1D2BB30AB30A242B21003308073ADC
:10164000031D242BFE30B30709302100B1007D2C8F
:101650004430210035052000DC00403A031D7D2C7C
:101660002100320EF0392000DC0003102100320D81
:101670002000DF00DC07210032082000DC07210009
:1016800033082000DC075C088731D0278B3120002D
:10169000E3007708E20020005C08F6002000620802
:1016A000F7006308CF242000E3007708E2006E30E3
:1016B0002100B4000B302100B1007D2C0630210048
:1016C000320203187A2B2100331C702B0030F600F5
:1016D00020006208F700630886315E268B31A02B5C
:1016E0000130F60020006208F700630886315E26AC
:1016F0008B31A02B0630210033020318892B0130D7
:10170000F60020006208F700630886315E268B3100
:10171000A02B0C30210033020318982B0030F60068
:1017200020006208F700630886315E268B31A02B0B
:10173000200062082000DC000030F7005C088F24E5
:101740006E302100B4000C302100B1007D2C21004E
:10175000320EF0392000DC0003102100320D200091
:10176000DF00DC07210032082000DC0721003308FD
:101770002000DC0721003408031DC12B2100B1012A
:101780007D2C8830210035052000DF00803A031DC4
:10179000CD2B09302100B1007D2C2100B51EE32B9B
:1017A0002000E20A0319E30A6308803E7D3E031D20
:1017B000DB2BE9306202031CF92B09302000E20721
:1017C0000318E30AF92B2100351E102CFF302000EE
:1017D000E207031CE3036308803E7D3E031DF22BFA
:1017E000E9306202031CF92BF7302000E207031CEA
:1017F000E30320005C08F60020006208F70063089D
:10180000CF242000E3007708E2001F3028001D02EB
:10181000031C0C2CF8309D070B302100B1007D2CEF
:101820004430210035052000DF00403A031D772CAD
:1018300021003208063A031D692C210033080C3AB6
:10184000031D692C0030F6000030F7007830873136
:1018500093278C310030F6000030F7007930873163
:1018600093278C3120006308803E803E031D3A2C74
:10187000063062020318692C200062082000DF0095
:101880005F0EF039E00003105F0DE100E0075F0834
:101890006007DF008731D0278C312000E100770816
:1018A000E000F6006108F7007730873193278C312C
:1018B0002000DF0A5F088731D0278C312000E0004C
:1018C0007708DF006004031D692C06302000E20069
:1018D000E30120006208F6006308F70020005C08BE
:1018E000873193278C3109302100B1007D2CFA30EB
:1018F00028009D007D2C2100B1012100310800301D
:10190000031901302000DC00DF005F0C03188A2C73
:1019100020009913031C8E2C20009917080020002A
:10192000CE007708CD0021003016B0163015B01467
:10193000063020004E020318B62C19302100AD00ED
:10194000DD302100AE0020004E08353ECE008F3045
:101950000318013ED0004E08F6005008F700803012
:101960008E31E8268C312100AF00CE2C00302000D3
:101970004D040319C52C61302100AD000930210050
:10198000AE00C9302100AF00CE2CC9302100AD001F
:10199000D1302100AE00FF302100AF000800200050
:1019A000D5007708D4007608D600723056020318A6
:1019B000092D5608D700133020005702031CE32CD2
:1019C000ED30D707DB2C2000571CF72CE730F30055
:1019D0000330F4000030F5000030F6005408F70042
:1019E000550855252000D5007708D400502D7830B3
:1019F000F3000530F4007030F500FE30F6002000F2
:101A00005408F700550855252000D5007708D40064
:101A1000502D8E302000D6070730F70056088F3142
:101A200017278D312000D700D8015708093ED6006E
:101A30008E30D90058080318580FD90703305607BD
:101A4000D700D801D80D5908D8075708F60058080C
:101A5000F70080308E31FA268D312000DB007708C8
:101A6000DA000530D6070318D90A5608F6005908D7
:101A7000F70080308E31FA268D312000D8007708AB
:101A8000D700F3005808F4005A08F5005B08F60088
:101A90005408F700550855252000D5007708D400D4
:101AA00020005408F700550808002000CE007708F1
:101AB000CD007608D0007508CF007408D2007308F6
:101AC000D1005208803ED3004E08803E5302031DD1
:101AD0006B2D4D0851020318722D20004F08F7009E
:101AE0005008882D20004E08803ED3005008803ECC
:101AF0005302031D7D2D4F084D020318842D200035
:101B00005108F7005208882D20004D08F7004E08B4
:101B100008006430F6008E30F70080308E31FA26EF
:101B20008D312000E5007708E4006630E6008E3055
:101B3000E70020006408E8006508E900FF30E407DA
:101B4000031CE503680869040319062E04306607C0
:101B5000E800E901E90D6708E9076808F600690887
:101B6000F70080308E31FA268D312000EB007708A7
:101B7000EA006608F6006708F70080308E31FA2622
:101B80008D312000ED00E9007708EC00E80002301C
:101B90006607E800E901E90D6708E9076808F6004B
:101BA0006908F70080308E31FA268D312000E90077
:101BB000EF007708E800EE0020006A08EE006B08EE
:101BC000EF00FF30EA07031CEB036E086F040319F4
:101BD000002E6C08F6006D08F70080308E31E82684
:101BE0008D312000EE0068088400690885006E08C9
:101BF0008000EC0A0319ED0AE80A0319E90ADC2D52
:101C000006302000E6070318E70A992D80314228A4
:101C10000800D134A134FF340034003432340034AD
:101C2000D134A1340D3400340034FA340034C934D2
:101C3000CD34FF34CE34FF3432340034C934CD34A3
:101C40000D34CE34FF343234003461341134FF3477
:101C50007034FE349034013461341934FF347034FC
:101C6000FE34783405346134C934FF340034003430
:101C7000083400348534D134FF3400340034E73480
:101C80000334CD348534FF34003400343C34003424
:101C9000D1348534FF34003400343C340034DD3436
:101CA0001934FF3400340034013400341934C134A1
:101CB0000D340034003401340034DD34D534FF34C5
:101CC00000340034063400340B3400340334003460
:101CD000B034003401340034F7340734A534003410
:101CE00002340034F9340734A734003402340034A9
:101CF000FB340734A934003402340034FD34073493
:101D0000AB34003402340034FF340734B1340034CF
:101D1000013400343F340F34B23400340134003421
:101D200040340F34B33400340134003441340F34C0
:101D3000B43400340134003442340F34B534003448
:101D40000134003443340F34B634003401340034E9
:101D5000003400341A34FE349D34FE34F234FE3440
:101D60003334FF346934FF349834FF34C334FF34E0
:101D7000EB34FF3410340034333400345534003441
:101D80007734003498340034B8340034D934003413
:101D9000FA3400341C3401343E34013462340134EA
:101DA00087340134AF340134D93401340734023478
:101DB0003934023470340234B0340234FB34023427
:101DC00058340334D134033482340434CA340534EF
:101DD000003A0319EF2E803A0319F52E00347608E5
:101DE0008400770885000008080077088A007608D4
:101DF00082000800003A0319022F803A03190A2FC3
:101E0000F701003476088400770885001200F70097
:101E1000000808008E31F526F500F60FF703F70AE3
:101E20008E31F526F4007508F700740808002100CB
:101E3000A0007708A100A2010830A3002100201C07
:101E4000232F2108A20721002008A4000310240C3E
:101E5000A0000310210DA400A1002303A400A300EF
:101E60002408031D1E2F220808000334B7340D3444
:101E70002534B134613441343734013421340034F1
:081E800000340034003400348A
:020000040001F9
:02000E00D40F0D
:02001000FF3AB5
:00000001FF
