:020000040000FA
:10000000000086310E2EFF348A012000911C412809
:10001000031022000D0D2000BF003F08031D122811
:100020001030BF0021008E0122008D0120003F080A
:10003000103A031928283F08203A03192D283F08B1
:10004000403A031932283F08803A031937283B28E1
:1000500021002D0822008E003B2821002E082200BE
:100060008E003B2821002F0822008E003B28210013
:10007000300822008E0020003F0822008D00200062
:100080009110090020008B1322000D082000DC00D5
:1000900021000E082000DD0022008D01D830210053
:1000A0008E0003102100360D2000DE00DF0120004D
:1000B0008E1F5C282000DF0A20005E08E0005F0839
:1000C000DE0060042100B6000310360D2000DE00C3
:1000D000DF0120000E1E6E282000DF0A20005E08CF
:1000E000E0005F08DE0060042100B6000310360D5A
:1000F0002000DE00DF0120000E1F80282000DF0A24
:1001000020005E08E0005F08DE0060042100B60009
:100110000310360D2000DE00DF0120008E1D922826
:100120002000DF0A20005E08E0005F08DE006004B7
:100130002100B60020005C0822008D0020005D0830
:1001400021008E0020008B1721003508031DB50308
:100150000D30210032020318C62C80308A00B430E2
:10016000320703188A0A8200C1282B2913298429FF
:100170009F29C529E9290D2A192A5D2A022BAB2BB3
:10018000022C8830210036052000DC00083A031DCF
:10019000D0281B302100B50001302100B200C82C4E
:1001A0000030210036040319C82C7F308F31BC2762
:1001B00080312000DD007708DC005D040319C82CC5
:1001C0003330210036052000DC00033A031DEC2803
:1001D00002302100B200C82C223021003605200058
:1001E000DC00023A031DF82803302100B200C82CBD
:1001F0001130210036052000DC00013A031D0729DB
:100200000D302100B50004302100B200C82C44306C
:10021000210036052000DC00403A031DC82C0730C1
:100220002100B200C82C0030F6006C30F70000301E
:100230008E314A26813121002D102100B016301553
:100240003330210036052000DC00333A0319C82C76
:100250002100B201C82C003021003504031D6329A0
:100260007F308F31BC2781312000DE007708DC0031
:10027000DF005F08003003190130DC00E000E1011D
:10028000E01BE1036008F6006108F7007F308F3162
:100290007F27813120005F080319562922000C10A6
:1002A0000C128C1220001810111060293C30210013
:1002B000AB00AC013C302100A900AA0120001814B9
:1002C0002100B201C82C8830210036052000DC0056
:1002D000883A0319C82CDC012100B11E71292000C5
:1002E000DC0A20005C08003003190130DF00DC006C
:1002F0005C0C03187D292100B112031C8129210007
:10030000B1162100B201C82C69308F31BC27813170
:100310002000DF007708DC000130F6005C08F70001
:100320005F088E314A2681312230210036052000B7
:10033000DC00223A0319C82C2100B201C82C70300D
:100340008F31BC2781312000DF007708DC00E0001E
:100350000030F7006008DA2405302000600203183E
:10036000BA2921003508031DBA291130B50005301E
:100370002100B2001130210036052000DC00113AC6
:100380000319C82C2100B201C82C6A308F31BC2758
:1003900081312000DF007708DC000030F6005C08C7
:1003A000F7005F088E314A26813121003508031D90
:1003B000DE290D30B50006302100B20011302100D9
:1003C00036052000DC00113A0319C82C2100B201C7
:1003D000C82C6B308F31BC2781312000DF007708BB
:1003E000DC000030F6005C08F7005F088E314A261A
:1003F000813121003508031D022A0D30B50004307B
:100400002100B2001130210036052000DC00113A35
:100410000319C82C2100B201C82C0130F7002100BB
:100420003308DA246E302100B50008302100B20014
:10043000C82C0030210035040319262A88302100F9
:1004400036052000DC00803A031D292A2100B20174
:10045000C82C2230210036052000DC00203A031D84
:100460003B2A2100B30A063033020318B3010730D8
:100470002100B200C82C1130210036052000DC001C
:10048000103A031D4F2A2100B30306303302031C28
:100490004B2A0530B30007302100B200C82C44308D
:1004A000210036052000DC00403A031DC82C210045
:1004B000B40109302100B200C82C21003016B0165A
:1004C000301505302100330203189A2A2100340820
:1004D000133A031D722AD5302100AD00DD30210012
:1004E000AE00822A2100341C7C2A85302100AD0018
:1004F000D1302100AE00822A61302100AD001930D8
:100500002100AE0003102100340C2000DC00E33E8B
:10051000DC008F300318013EDF005C08F6005F0846
:10052000F70080308731732782312000E0002100FE
:10053000AF00FB2A0730F700210034088731A227DB
:1005400082312000DC00DF015C088E3EDC005F08A9
:1005500003185F0F863EDF005C08F6005F08F700B7
:1005600080308731732782312000E0002100AD0008
:100570000730F700210034088731A227823120009C
:10058000DC00DF015C088E3EDC005F0803185F0FB3
:10059000863EDF00DC0A0319DF0A5C08F6005F080C
:1005A000F70080308731732782312000E00021007E
:1005B000AE000730F700210034088731A2278231CE
:1005C0002000DC00DF015C088E3EDC005F080318C1
:1005D0005F0F863EDF000230DC070318DF0A5C088D
:1005E000F6005F08F70080308731732782312000E2
:1005F000E0002100AF006E302100B5000A3021007C
:10060000B200C82C003021003504031D0A2B210044
:10061000B201C82C8830210036052000DC00803A69
:10062000031D162B07302100B200C82C22302100F8
:1006300036052000DC00203A031D372B2100B40AC8
:1006400005302100330203182C2B14302100340212
:10065000031C332BB401332B0D3021003402031C57
:10066000552BB401552B09302100B200C82C113094
:10067000210036052000DC00103A031D752B2100F7
:10068000B40305302100330203184E2B143021002F
:100690003402031C712B1330B400712B0D30210078
:1006A0003402031C552B0C30B40070308F31BC2742
:1006B00083312000DF007708DC00E00005306002B5
:1006C000031C712B21003408063A031D6A2BB40A5F
:1006D000B40A712B21003408073A031D712BFE3038
:1006E000B40709302100B200C82C4430210036057F
:1006F0002000DC00403A031DC82C2100330EF039E5
:100700002000DC0003102100330D2000DF00DC0797
:10071000210033082000DC07210034082000DC071A
:100720005C088F31BC2783312000E3007708E200AA
:1007300020005C08F60020006208F7006308282506
:100740002000E3007708E2006E302100B5000B3096
:100750002100B200C82C0530210033020318D52B2C
:1007600021003408133A031DBE2B2000620820002C
:10077000DC000030F7005C08DA24FB2B2100341C7D
:10078000CB2B0030F60020006208F70063088E31A2
:100790004A268331FB2B0130F60020006208F70067
:1007A00063088E314A268331FB2B06302100340248
:1007B0000318E42B0130F60020006208F7006308FC
:1007C0008E314A268331FB2B0C3021003402031872
:1007D000F32B0030F60020006208F70063088E312A
:1007E0004A268331FB2B200062082000DC00003009
:1007F000F7005C08DA246E302100B5000C302100CF
:10080000B200C82C2100330EF0392000DC000310A8
:100810002100330D2000DF00DC0721003308200019
:10082000DC07210034082000DC0721003508031D07
:100830001C2C2100B201C82C883021003605200074
:10084000DF00803A031D282C09302100B200C82C9B
:100850002100B61E3E2C2000E20A0319E30A6308B9
:10086000803E7D3E031D362CE9306202031C542C71
:1008700009302000E2070318E30A542C2100361E39
:100880006B2CFF302000E207031CE3036308803E6B
:100890007D3E031D4D2CE9306202031C542CF730C1
:1008A0002000E207031CE30320005C08F6002000A0
:1008B0006208F700630828252000E3007708E200BB
:1008C0001F3028001D02031C672CF8309D070B30D9
:1008D0002100B200C82C4430210036052000DF0082
:1008E000403A031DC22C21003308053A031DB42CE5
:1008F000210034080C3A031DB42C0030F6000030FF
:10090000F7006A308F317F2784310030F6000030E5
:10091000F7006B308F317F27843120006308803EE1
:10092000803E031D952C053062020318B42C200074
:1009300062082000DF005F0EF039E00003105F0D59
:10094000E1000310E10D61086007DF008F31BC2773
:1009500084312000E0007708DF00F6006008F7002F
:1009600069308F317F27843120006208F6006308E8
:10097000F70020005C088F317F2784310930210087
:10098000B200C82CFA3028009D00C82C2100B2010A
:10099000210032080030031901302000DC00DF00A4
:1009A0005F0C0318D52C2100B111031CD92C210098
:1009B000B11508002000CE007708CD0021003016C8
:1009C000B0163015B014053020004E020318012D6A
:1009D00019302100AD00DD302100AE0020004E08AE
:1009E000E33ED0008F300318013ECF005008F600E0
:1009F0004F08F70080308731732784312100AF0022
:100A0000272D003020004D040319102D61302100E6
:100A1000AD0009302100AE00C9302100AF00272D04
:100A200020004E08053A031D1F2DC9302100AD00DE
:100A3000D1302100AE00FF302100AF00272D033060
:100A40002100AD0059302100AE002100AF000800A8
:100A50002000D5007708D4007608D600643056020E
:100A600003188E2D5608D700143020005702031C9F
:100A70003C2DEC30D707342D20005708133A031DC6
:100A8000522D0630F3000030F4000030F500003045
:100A9000F6005408F7005508DA252000D50077083D
:100AA000D400D52D20005708013A031D682DE730EA
:100AB000F3000330F4000130F5000030F600540874
:100AC000F7005508DA252000D5007708D400D52D89
:100AD0002000571C7C2DE730F3000330F400003079
:100AE000F5000030F6005408F7005508DA2520001C
:100AF000D5007708D400D52DC430F3000930F400B8
:100B00007030F500FE30F60020005408F70055085C
:100B1000DA252000D5007708D400D52D9C302000A0
:100B2000D6070730F70056088731A2278531200005
:100B3000D700D80157088E3ED6008630D900580815
:100B40000318580FD90703305607D700D801D80D1E
:100B50005908D8075708F6005808F7008030873141
:100B6000852785312000DB007708DA000530D607BD
:100B70000318D90A5608F6005908F7008030873163
:100B8000852785312000D8007708D700F300580862
:100B9000F4005A08F5005B08F6005408F700550801
:100BA000DA252000D5007708D40020005408F7008B
:100BB000550808002000CE007708CD007608D00048
:100BC0007508CF007408D2007308D1005208803E27
:100BD000D3004E08803E5302031DF02D4D085102F4
:100BE0000318F72D20004F08F70050080D2E2000A5
:100BF0004E08803ED3005008803E5302031D022E53
:100C00004F084D020318092E20005108F700520822
:100C10000D2E20004D08F7004E080800E930F600C0
:100C20008630F70080308731852786312000E50047
:100C30007708E400EB30E6008630E7002000640827
:100C4000E8006508E900FF30E407031CE5036808D5
:100C5000690403198B2E04306607E800E901E90DE9
:100C60006708E9076808F6006908F70080308731EF
:100C7000852786312000EB007708EA006608F60039
:100C80006708F70080308731852786312000ED0026
:100C9000E9007708EC00E80002306607E800E901A7
:100CA000E90D6708E9076808F6006908F700803071
:100CB0008731852786312000E900EF007708E800BA
:100CC000EE0020006A08EE006B08EF00FF30EA0734
:100CD000031CEB036E086F040319852E6C08F600E5
:100CE0006D08F70080308731732786312000EE00D1
:100CF00068088400690885006E088000EC0A031902
:100D0000ED0AE80A0319E90A612E06302000E60719
:100D10000318E70A1E2E883100280800D134A134B8
:100D2000FF340034003464340034D134A1340D3441
:100D300000340034F4340134C934CD34FF349C34ED
:100D4000FF3464340034C934CD340D349C34FF3462
:100D50006434003461341134FF34E034FC34203422
:100D6000033461341934FF347034FE34C43409342C
:100D70006134C934FF34003400340834003485341D
:100D8000D134FF3400340034E7340334CD348534B7
:100D9000FF34003400343C340034D1348534FF3423
:100DA000003400343C340034DD341934FF34003472
:100DB0000034013400341934C1340D3400340034AB
:100DC00001340034DD34D534FF34003400340634CB
:100DD00000340C34003403340034B03400340134B3
:100DE0000034F5340F34B134003401340034ED34C0
:100DF0000F34A534003402340034EF340F34A734F8
:100E0000003402340034F1340F34A9340034023495
:100E10000034F3340F34AB34003402340034F6348D
:100E20000F34B234003401340034F7340F34B334A7
:100E3000003401340034F8340F34B4340034013455
:100E40000034F9340F34B534003401340034FA344A
:100E50000F34B634003401340034FB340F34B7346B
:100E600000340134003400340034D534FD34C1344E
:100E7000FE345934FF34CF34FF34303400348634F8
:100E80000034D33400341A3401345C3401349C34DB
:100E90000134DA34013416340234513402348C34DF
:100EA0000234C7340234023403343F3403347D3413
:100EB0000334BD34033401340434483404349434EA
:100EC0000434E53404343F340534A4340534173491
:100ED00006349E340634443407341E3408345D34FA
:100EE0000934AB340B34003A03197A2F803A0319D2
:100EF000802F0034760884007708850000080800F9
:100F000077088A00760882000800003A03198D2FBE
:100F1000803A0319952FF70100347608840077088A
:100F200085001200F7000008080087318027F500CF
:100F3000F60FF703F70A87318027F4007508F700EA
:100F4000740808002100A0007708A100A201083061
:100F5000A3002100201CAE2F2108A2072100200899
:100F6000A4000310240CA0000310210DA400A10074
:100F70002303A400A3002408031DA92F22080800AE
:101000002000C001C101FF30C2007F30C300FF30AB
:10101000C4007F30C5006A30210099000E308C007A
:1010200022008C0121008D0122008D0121008E0102
:10103000063023008C0021001E169E1723008E010F
:1010400020009813181398121812981518151814D0
:10105000F43026009900243098000B309A000530B7
:1010600020009C00FA309B002100911437302800AA
:101070009E00FA309D00C03020008B000930210016
:101080009D002000931D5728803142208831200088
:1010900018185528FF302100B00003302100AD00A2
:1010A00059302100AF002100AE0020009311200034
:1010B000931E3F2D20004008C6000F39031DF82B5A
:1010C0004208F700430842252000C7007708C60001
:1010D0006630BC272000C9007708C8004608CA004F
:1010E0004708CB0048084A072100A50020004B080C
:1010F0002100A600200049080318490A0319822884
:101100002100A6077030BC272000C7007708C60062
:10111000C8000530480203180F2A210030132000B0
:101120004008C6004108C700C801C9014908803EFF
:10113000803E031DA52800304802031DA528E1308C
:101140004702031DA52800304602031C122A7030F6
:10115000BC272000AD007708AC00AE0005302E02A1
:1011600003180B2A6A30BC272000AD007708AC00BA
:10117000AF006B30BC272000AD007708AC00AC0A94
:101180000319AD0A09302F02031CC8280830AF002C
:1011900020002E0EF039B00003102E0DB100031008
:1011A000B10D3108B00703102F0DB1003007B100A9
:1011B000310AB200BC272000B3007708B200023029
:1011C0003107B400BC272000B5007708B40033080D
:1011D0002D02031DED2832082C02031C6E2920006D
:1011E0002F08083A0319FF2803303107B600BC273F
:1011F0002000B7007708B6003704031D59291330C3
:101200002000B0073008BC272000B6007708B000E7
:10121000AE0005302E02031839292E0EF039B00029
:1012200003102E0DB6000310B60D3608B0073008B7
:10123000BC272000B6007708B000F6003608F7009B
:1012400069307F270030F6000030F7006A307F27D2
:101250000030F6000030F7006B307F2720002E08AA
:10126000B000B6013008F6003608F70070307F276E
:10127000582920003408F6003508F70069307F2728
:101280000530F6000030F70070307F270630200070
:101290002E02031C58290030F6000030F7007F3082
:1012A0007F2722000C100C128C1220001810111035
:1012B0000B2A20003408F6003508F70069307F2734
:1012C0002000AC01AD01AF0A2F08AE00B0012E081E
:1012D000F6003008F7006A307F27042A6E30BC27FA
:1012E0002000AF007708AE002F040319042A31084C
:1012F000BC272000AF007708AE002D0EF039B100FA
:101300002C0EB0000F39B104B0060310B00DB10DB2
:101310000310B00DB10D2030B600B701B801B9010E
:10132000BA01200033083102031D98293208300227
:10133000031CB92920003208B0023308031C330F04
:10134000B1023408BB003508BC000030BC1BFF30C4
:10135000BE00BD003B08B6073C0803183C0FB707AA
:101360003D0803183D0FB8073E0803183E0FB907A4
:10137000D12920002E08BB002F08BC000030BC1B68
:10138000FF30BE00BD003B08B6073C0803183C0F09
:10139000B7073D0803183D0FB8073E0803183E0F76
:1013A000B9072000BA0A40303A02031C9129360ED0
:1013B0000F39B600370EB700F039B604B706380E4D
:1013C000B800F039B704B806390EB900F039B804DE
:1013D000B906F030B919B9040310B91B0314B90CDC
:1013E000B80CB70CB60C0310B91B0314B90CB80C2D
:1013F000B70CB60C3608AE003708AF002E08F60062
:101400002F08F70069307F2720002C08F6002D08F0
:10141000F7006B307F272000C001C101122A200095
:10142000C001C1012100311D202AB11D202A6130D7
:101430002100AD0011302100AE00FF302100AF00CF
:101440002100B11C2F2A22000C128C123C302100EA
:10145000A900AA013C302100AB00AC01F82B693097
:10146000BC272000A7007708A9006530BC27200012
:10147000A8007708AB006F30BC272000AA007708CF
:10148000AD00AC00210029082A0403194B2AFF30C3
:10149000A907031CAA0321002B082C040319542AB2
:1014A000FF30AB07031CAC032000AD0122000C1E73
:1014B0005B2A2000AD0A20002D08003003190130FE
:1014C000AA00AD002D0C0318672A2100B013031CDD
:1014D0006B2A2100B0172000AD0122008C1E722A59
:1014E0002000AD0A20002D08003003190130AA00A9
:1014F000AD002D0C03187E2A2100B011031C822A96
:101500002100B01522000C1EB12A20002708803EC1
:10151000AE0021002608803E20002E02031D942AE2
:1015200021002508200029020318E02A20002C08A9
:101530000319B12A2B082902AD002808031C280A28
:101540002702AA0021002808803E2000AE002A08B9
:10155000803E2E02031DAF2A2D0821002702031C06
:10156000E02A22008C1E3E2B21002608803E20000F
:10157000AE002708803E2E02031DC12A2908210043
:1015800025020318E02A20002C0803193E2B2B0803
:101590002907AD002708AA0028080318280FAA0762
:1015A0002A08803EAE0021002808803E20002E023E
:1015B000031DDE2A2100270820002D0203183E2BE0
:1015C0006C30BC272000AA007708AD002A0EF03945
:1015D0002100AA0020002D0E2100A9000F39AA0425
:1015E000A9060310A90DAA0D0310A90DAA0D290E15
:1015F0000F392000AD0021002A0E2000AA00F0398A
:10160000AD04AA062D082100A90220002A08031C07
:101610002A0A03190D2B2100AA026D30BC272000D5
:10162000AA007708AD002A0EF0392100AC00200096
:101630002D0E2100AB000F39AC04AB060310AB0D2F
:10164000AC0D0310AB0DAC0D2B0E0F392000AD000F
:1016500021002C0E2000AA00F039AD04AA062D08A6
:101660002100AB0220002A08031C2A0A03193A2B86
:101670002100AC0222000C128C12F82B22000C1A52
:10168000F82B8C1AF82B6430BC272000AA007708AE
:10169000AD000310A81B0314A80CAB0C0310A81B6F
:1016A0000314A80CAB0C2D082907AE002708AF00C7
:1016B0002A0803182A0FAF072F08803EB000210028
:1016C0002608803E20003002031D6A2B21002508D9
:1016D00020002E020318A72B20002C080319872BAB
:1016E0002B082902AE002808031C280A2702AF0095
:1016F00021002808803E2000B0002F08803E3002E4
:10170000031D852B2E0821002702031CA72B210077
:1017100029082A040319A42B2000AE012100B01FC0
:10172000932B2000AE0A2100290801392000AF00C8
:10173000B000AE062E0C03189F2B2100B013031C23
:10174000A32B2100B017F82B22000C16F82B200039
:101750002D082902AD002A08031C2A0A2702AA0024
:1017600021002608803E2000B1002A08803E310278
:10177000031DBD2B2D08210025020318F82B200086
:101780002C080319D92B2B08A90728080318280FA0
:10179000A7072708803EB10021002808803E2000CE
:1017A0003102031DD72B2100270820002902031C2A
:1017B000F82B21002B082C040319F62B2000A9017B
:1017C0002100B01DE52B2000A90A21002B080139BA
:1017D0002000A700AB00A906290C0318F12B21005B
:1017E000B011031CF52B2100B015F82B22008C162C
:1017F00020004008C6000F30C6054608073A031D02
:101800001D2D2100301720004408F700450842250F
:101810002000C7007708C6006730BC272000C90039
:101820007708C8004608CA004708CB0048084A079E
:101830002100A70020004B082100A8002000490833
:101840000318490A0319262C2100A8072000430881
:10185000C600C7014608C800F830480203184D2CDE
:1018600009304802031C4D2C6F30BC272000C700F4
:101870007708C600470403194A2C4508C600C7016B
:101880004608C800F830480203184D2C09304802B9
:10189000031C4D2C2000C601502C01302000C60036
:1018A00020004608C700470C0318582C2100B1102F
:1018B000031C5C2C2100B1146830BC272000C70039
:1018C0007708C60047040319CC2C6930BC272000D8
:1018D000C9007708C800210025082000CA0021009F
:1018E00026082000CB0048084A02C8004908031C0B
:1018F000490A4B02C9000314C91F0310031C852C9D
:10190000C809C909C80A0319C90A03142000C71F56
:101910000310031CAE2CC609C709C60A0319C70A5F
:101920004708803ECC004908803E4C02031D9A2C9B
:10193000480846022000CA01031C4A144A08003025
:1019400003190130CB00CA004A0C0318A92C21004E
:101950003111031CAD2C21003115CC2C200049087D
:10196000803ECC004708803E4C02031DB92C46083F
:1019700048022000CA01031C4A144A080030031917
:101980000130C600CA004A0C0318C82C21003111CE
:10199000031CCC2C210031152100B11D062DB11CDA
:1019A000DD2C11302100AD00CB302100AE00FF3026
:1019B0002100AF0021003017062D2000C6012100B4
:1019C000B11EE42C2000C60A20004608003003198E
:1019D0000130C800C600460C0318F02C2100B010DE
:1019E000031CF42C2100B0142100B11EFF2C013087
:1019F000F60021002708F70028084A26062D0130A6
:101A0000F60021002508F70026084A262100B11813
:101A10000E2D31190E2D2000C601112D0130200090
:101A2000C60020004608C800480C0318192D2200E3
:101A30000C10031C1D2D22000C142000C00A0319D9
:101A4000C10A4008C600461C312D4208F700430871
:101A50000E262000C3007708C200053021009D003B
:101A60003D2D20004408F70045080E262000C50043
:101A70007708C400093021009D0020009312640003
:101A8000412808002000A0007708A1002030A20013
:101A9000A301A401A601210E0F39A500200EA70065
:101AA000F039A504A7060310A70CA50C3F30A50527
:101AB000A7012508A9000310200CA500A701031009
:101AC000A70CA50C0310A70CA50C1F302505A10021
:101AD000A0012108A500250AA1000230F700210875
:101AE0008731A2278D312000A000A7012008333EB6
:101AF000A0008730A10027080318270FA107023094
:101B0000F70025088731A2278D312000A700A80102
:101B10002708333EA7008730A50028080318280FA0
:101B2000A507A801200029082802031CBA2D2708B0
:101B3000F6002508F7008030873185278D31200099
:101B4000AB007708AA00AD002B08AC000030AC1B3E
:101B5000FF30AE00AF002D08A2072C0803182C0F91
:101B6000A3072F0803182F0FA4072E0803182E0F02
:101B7000A607DD2D20002008F6002108F7008030A0
:101B8000873185278D312000AB007708AA00AD0092
:101B90002B08AC000030AC1BFF30AE00AF002D08AE
:101BA000A2072C0803182C0FA3072F0803182F0FC8
:101BB000A4072E0803182E0FA6072000A80A4030FD
:101BC0002802031C922D220E0F39A100230EA00023
:101BD000F039A104A006240EA500F039A004A50642
:101BE000260EA700F039A504A706F030A719A70410
:101BF0000310A71B0314A70CA50CA00CA10C031029
:101C0000A71B0314A70CA50CA00CA10C2108A20073
:101C10002008A3002208F700230808002000A000E5
:101C20007708A10021009D18122E1D102000210E02
:101C30000F39A200200EA300F039A204A30603105E
:101C4000A30CA20C0310A30CA20C2208A1022308CF
:101C5000031C230FA00221001C082000A200A301E6
:101C60002208A400A60121001B082000A200A30155
:101C70002208A6042308A4042608A2002408A3001E
:101C80002208A10723080318230FA0072108F70043
:101C9000200808002000A0007708A1007608A20014
:101CA0000314A01F0310031C5E2E2100301220001D
:101CB000A109A009A10A0319A00A602E210030166B
:101CC0000030200022040319682E2100B0123015C4
:101CD00020002008803E7D3E031D702EE83021024A
:101CE000031CDC2E20002108A3002008A400031000
:101CF000240CA600230CA5000310240CA700230C21
:101D0000A9000310A70CA90C2908A5072708031888
:101D1000270FA607250E0F39A900260EA700F039B8
:101D2000A904A7062908A50727080318270FA6074F
:101D30002608A900A7012908A50727080318270FC7
:101D4000A6070310A60CA50C0310A60CA50C0310E7
:101D5000A60CA50C0310250DA900260DA700031045
:101D6000A90DA70D0310A90DA70D0310250DA8009F
:101D7000260DAB002808A9072B0803182B0FA7076F
:101D80002908A3022708031C270FA4020630A30773
:101D90000318A40A230E0F39A900240EA700F03956
:101DA000A904A70629082507A1002608A0002708DE
:101DB0000318270FA007A20120002008803E803EC4
:101DC000031DE42E64302102031C182F200021087B
:101DD000A3002008A400A50120002408803E803E26
:101DE000031DF42E64302302031CFD2E9C302000C2
:101DF000A307031CA403A50AEC2E20002308A100BE
:101E00002408A0000F30A5052508E33EA5008F306B
:101E10000318013EA3002508F6002308F7008030D0
:101E2000873173278F312000A4002100AD001B2FC4
:101E3000FF302100AD0020002008803E803E031DC1
:101E4000232F0A3021020318302F20002208031DFF
:101E5000302F21002D082000A300FF3A0319662F20
:101E600020002108A3002008A400A50120002408C8
:101E7000803E803E031D3E2F0A302302031C472F65
:101E8000F6302000A307031CA403A50A362F200068
:101E90002308A1002408A0002508E33EA5008F30F8
:101EA0000318013EA3002508F6002308F700803040
:101EB000873173278F312000A4002100AE0020005D
:101EC00022080319692F21002E10692FFF302100ED
:101ED000AE0020002108A200E33EA1008F300318CD
:101EE000013EA0002108F6002008F700803087316D
:101EF00073278F312000A2002100AF0008002000CE
:101F0000A7007708A9007608A8002708BC272000AA
:101F1000AB007708AA002806031D922F2B0829067C
:101F20000319BB2F03102000270DAA0020002A0848
:101F30002300910020002808230093001513951317
:101F4000151520008B13553023009600AA309600FB
:101F5000951420008B172300151123009518AD2F21
:101F60002000121220002908A800A9012A08A700B1
:101F7000AA0A271C962F08002000A000A101A20198
:101F80000310200DA3002000230823009100151347
:101F90009513151413082000A000A4012008A60022
:101FA000A5012208A000A40120082504A1002408FE
:101FB0002604A2002308A000A30A201CC32F210886
:101FC000F700220808000334B7340D342534B13447
:101FD0006134413437340134213400340034003466
:101FE00000343C3400343C340034003400340034D9
:081FF000003400340034003419
:020000040001F9
:02000E00D40F0D
:02001000FF3AB5
:00000001FF
