:020000040000FA
:1000000000008D31882DFF348A012000911C412889
:10001000031022000D0D2000BF003F08031D122811
:100020001030BF0021008E0122008D0120003F080A
:10003000103A031928283F08203A03192D283F08B1
:10004000403A031932283F08803A031937283B28E1
:100050002100300822008E003B28210031082200B8
:100060008E003B282100320822008E003B28210010
:10007000330822008E0020003F0822008D0020005F
:10008000911009002000C001C101FF30C2007F3083
:10009000C300FF30C4007F30C5006A3021009900E2
:1000A0000E308C0022008C0121008D0122008D0178
:1000B00021008E01063023008C0021001E169E17A1
:1000C00023008E0120009813181398121812981507
:1000D00018151814F43026009900243098000B30BD
:1000E0009A00053020009C00FA309B0021009114FA
:1000F000373028009E00FA309D00C03020008B0071
:10010000093021009D002000931D9928883100208E
:100110008031200018189728FF302100B3000330E9
:100120002100B00059302100B2002100B1002000B0
:1001300093112000931E4F2D20004008C6000F3958
:10014000031DE62B4208F700430852252000C70094
:100150007708C6007430CC272000C9007708C80093
:100160004608CA004708CB0048084A072000EB00B1
:1001700020004B082000EC00200049080318490A21
:100180000319C4282000EC077E30CC272000C700CC
:100190007708C600C800063048020318FD29210070
:1001A000331320004008C6004108C700C801C90138
:1001B0004908803E803E031DE72800304802031DA9
:1001C000E728E1304702031DE72800304602031C00
:1001D000002A7E30CC272000AD007708AC00AE00AE
:1001E00006302E020318F9297830CC272000AD0004
:1001F0007708AC00AF007930CC272000AD0077083D
:10020000AC00AC0A0319AD0A09302F02031C0A29FD
:100210000830AF0020002E0EF039B00003102E0D74
:10022000B100B0072E083007AE0003102F0DB0004C
:10023000AE072E0AB000CC272000B1007708B0002E
:1002400002302E07B200CC272000B3007708B2009E
:1002500031082D02031D2E2930082C02031C5C29B5
:1002600020003208F6003308F70077308F2720008F
:100270002F08083A0319472903302E07B400CC276A
:100280002000B5007708B4003504031D4E29063060
:10029000F6000030F7007E308F27F9292000AC01EE
:1002A000AD01AF0A2F08B400B5013408F6003508D7
:1002B000F70078308F27F2297C30CC272000B4005B
:1002C0007708AF0034040319F2292E08CC27200048
:1002D000AF007708AE002D0EF039B5002C0EB4003B
:1002E0000F39B504B4060310B40DB50D0310B40DE9
:1002F000B50D2030B600B701B801B901BA01200030
:1003000031083502031D862930083402031CA72951
:1003100020003008B4023108031C310FB502320846
:10032000BB003308BC000030BC1BFF30BE00BD006A
:100330003B08B6073C0803183C0FB7073D080318F5
:100340003D0FB8073E0803183E0FB907BF2920002C
:100350002E08BB002F08BC000030BC1BFF30BE00C5
:10036000BD003B08B6073C0803183C0FB7073D0823
:1003700003183D0FB8073E0803183E0FB9072000C9
:10038000BA0A40303A02031C7F29360E0F39B600F4
:10039000370EB700F039B604B706380EB800F0399A
:1003A000B704B806390EB900F039B804B906F03010
:1003B000B919B9040310B91B0314B90CB80CB70C64
:1003C000B60C0310B91B0314B90CB80CB70CB60C5F
:1003D0003608AE003708AF002E08F6002F08F700E9
:1003E00077308F2720002C08F6002D08F700793091
:1003F0008F272000C001C101002A2000C001C101D7
:100400002100341D0E2AB41D0E2A61302100B000D7
:1004100011302100B100FF302100B2002100B41CD6
:100420001D2A22000C128C123C302100AC00AD01C0
:100430003C302100AE00AF01E62B7730CC27200006
:10044000A7007708A9007330CC272000A800770800
:10045000AB007D30CC272000AA007708AD00AC00AF
:1004600021002C082D040319392AFF30AC07031C86
:10047000AD0321002E082F040319422AFF30AE07D6
:10048000031CAF032000AD0122000C1E492A2000EE
:10049000AD0A20002D08003003190130AA00AD007C
:1004A0002D0C0318552A2100B313031C592A2100CF
:1004B000B3172000AD0122008C1E602A2000AD0A77
:1004C00020002D08003003190130AA00AD002D0CCA
:1004D00003186C2A2100B311031C702A2100B315E4
:1004E00022000C1E9F2A20002708803EAE0020001C
:1004F0006C08803E20002E02031D822A20006B081B
:10050000200029020318CE2A20002C0803199F2A54
:100510002B082902AD002808031C280A2702AA007C
:1005200020006E08803E2000AE002A08803E2E0289
:10053000031D9D2A2D0820006D02031CCE2A2200D7
:100540008C1E2C2B20006C08803E2000AE0027085B
:10055000803E2E02031DAF2A290820006B020318DB
:10056000CE2A20002C0803192C2B2B082907AD00BC
:100570002708AA0028080318280FAA072A08803E7F
:10058000AE0020006E08803E20002E02031DCC2A03
:1005900020006D0820002D0203182C2B7A30CC2768
:1005A0002000AA007708AD002A0EF0392100AD0026
:1005B00020002D0E2100AC000F39AD04AC06031055
:1005C000AC0DAD0D0310AC0DAD0D2C0E0F39200090
:1005D000AD0021002D0E2000AA00F039AD04AA06BE
:1005E0002D082100AC0220002A08031C2A0A031946
:1005F000FB2A2100AD027B30CC272000AA0077081F
:10060000AD002A0EF0392100AF0020002D0E210090
:10061000AE000F39AF04AE060310AE0DAF0D0310E0
:10062000AE0DAF0D2E0E0F392000AD0021002F0EA4
:100630002000AA00F039AD04AA062D082100AE0260
:1006400020002A08031C2A0A0319282B2100AF02C4
:1006500022000C128C12E62B22000C1AE62B8C1AAC
:10066000E62B7230CC272000AA007708AD000310DB
:10067000A81B0314A80CAB0C0310A81B0314A80C94
:10068000AB0C2D082907AE002708AF002A08031875
:100690002A0FAF072F08803EB00020006C08803E74
:1006A00020003002031D582B20006B0820002E0272
:1006B0000318952B20002C080319752B2B082902F1
:1006C000AE002808031C280A2702AF0020006E088D
:1006D000803E2000B0002F08803E3002031D732BA7
:1006E0002E0820006D02031C952B21002C082D04E0
:1006F0000319922B2000AE012100B31F812B200093
:10070000AE0A21002C0801392000AF00B000AE066F
:100710002E0C03188D2B2100B313031C912B2100E9
:10072000B317E62B22000C16E62B20002D08290219
:10073000AD002A08031C2A0A2702AA0020006C0820
:10074000803E2000B1002A08803E3102031DAB2B01
:100750002D0820006B020318E62B20002C0803193B
:10076000C72B2B08A90728080318280FA707270855
:10077000803EB10020006E08803E20003102031D43
:10078000C52B20006D0820002902031CE62B210048
:100790002E082F040319E42B2000A9012100B31D0A
:1007A000D32B2000A90A21002E0801392000A70020
:1007B000AB00A906290C0318DF2B2100B311031C81
:1007C000E32B2100B315E62B22008C1620004008F5
:1007D000C6000F30C6054608073A031D2D2D21001F
:1007E000331720004408F700450852252000C700B1
:1007F0007708C6007530CC272000C9007708C800EC
:100800004608CA004708CB0048084A072000ED0008
:1008100020004B082000EE00200049080318490A78
:100820000319142C2000EE0720004308C600C7015E
:100830004608C800F8304802C601031C46144608A2
:10084000003003190130C9004908031D5D2C09302F
:100850004802C601C60D4608003003190130C80021
:100860004808031D5D2C7D30CC272000C800770888
:10087000C600480403195A2C4508C600C80146089A
:10088000C900F8304902C601031C4614460800306E
:1008900003190130CA004A08031D5D2C09304902C2
:1008A000C601C60D4608003003190130C9004908C9
:1008B000031D5D2C2000C601602C01302000C60005
:1008C00020004608C900490C0318682C2100B41008
:1008D000031C6C2C2100B4147630CC272000C900F6
:1008E0007708C60049040319DC2C7730CC27200098
:1008F000CB007708CA0020006B082000CC00200045
:100900006C082000CD004A084C02CA004B08031CAA
:100910004B0A4D02CB000314CB1F0310031C952C74
:10092000CA09CB09CA0A0319CB0A03142000C91F3C
:100930000310031CBE2CC609C909C60A0319C90A3B
:100940004908803ECE004B08803E4E02031DAA2C73
:100950004A0846022000CC01031C4C144C0800300D
:1009600003190130CD00CC004C0C0318B92C210028
:100970003411031CBD2C21003415DC2C20004B0845
:10098000803ECE004908803E4E02031DC92C460819
:100990004A022000CC01031C4C144C0800300319FF
:1009A0000130C600CC004C0C0318D82C21003411A7
:1009B000031CDC2C210034152100B41D162DB41CA1
:1009C000ED2C11302100B000CB302100B100FF3000
:1009D0002100B20021003317162D2000C60121008E
:1009E000B41EF42C2000C60A20004608003003196B
:1009F0000130CA00C600460C0318002D2100B310B8
:100A0000031C042D2100B3142100B41E0F2D01304E
:100A1000F60020006D08F7006E085A26162D0130EA
:100A2000F60020006B08F7006C085A262100B41865
:100A30001E2D34191E2D2000C601212D013020004D
:100A4000C60020004608CA004A0C0318292D2200BF
:100A50000C10031C2D2D22000C142000C00A0319B9
:100A6000C10A4008C600461C412D4208F700430851
:100A70001E262000C3007708C200053021009D001B
:100A80004D2D20004408F70045081E262000C50013
:100A90007708C400093021009D00200093126400F3
:100AA000832808002000A0007708A1002030A200C1
:100AB000A301A401A601210E0F39A500200EA70055
:100AC000F039A504A7060310A70CA50C3F30A50517
:100AD000A7012508A9000310200CA500A7010310F9
:100AE000A70CA50C0310A70CA50C1F302505A10011
:100AF000A0012108A500250AA1000230F700210865
:100B00008F311C2785312000A000A7012008AD3EB1
:100B1000A0000E30A10027080318270FA1070230FC
:100B2000F70025088F311C2785312000A700A80178
:100B30002708AD3EA7000E30A50028080318280F8F
:100B4000A507A801200029082802031CCA2D270890
:100B5000F6002508F70080308E31FF268531200011
:100B6000AB007708AA00AD002B08AC000030AC1B2E
:100B7000FF30AE00AF002D08A2072C0803182C0F81
:100B8000A3072F0803182F0FA4072E0803182E0FF2
:100B9000A607ED2D20002008F6002108F700803080
:100BA0008E31FF2685312000AB007708AA00AD000A
:100BB0002B08AC000030AC1BFF30AE00AF002D089E
:100BC000A2072C0803182C0FA3072F0803182F0FB8
:100BD000A4072E0803182E0FA6072000A80A4030ED
:100BE0002802031CA22D220E0F39A100230EA00003
:100BF000F039A104A006240EA500F039A004A50632
:100C0000260EA700F039A504A706F030A719A704FF
:100C10000310A71B0314A70CA50CA00CA10C031018
:100C2000A71B0314A70CA50CA00CA10C2108A20063
:100C30002008A3002208F700230808002000A000D5
:100C40007708A10021009D18222E1D102000210EE2
:100C50000F39A200200EA300F039A204A30603104E
:100C6000A30CA20C0310A30CA20C2208A1022308BF
:100C7000031C230FA00221001C082000A200A301D6
:100C80002208A400A60121001B082000A200A30145
:100C90002208A6042308A4042608A2002408A3000E
:100CA0002208A10723080318230FA0072108F70033
:100CB000200808002000A0007708A1007608A20004
:100CC0000314A01F0310031C6E2E210033122000FA
:100CD000A109A009A10A0319A00A702E2100331648
:100CE0000030200022040319782E2100B3123311A2
:100CF00020002008803E7D3E031D802EE83021022A
:100D0000031CEC2E20002108A3002008A4000310DF
:100D1000240CA600230CA5000310240CA700230C10
:100D2000A9000310A70CA90C2908A5072708031878
:100D3000270FA607250E0F39A900260EA700F039A8
:100D4000A904A7062908A50727080318270FA6073F
:100D50002608A900A7012908A50727080318270FB7
:100D6000A6070310A60CA50C0310A60CA50C0310D7
:100D7000A60CA50C0310250DA900260DA700031035
:100D8000A90DA70D0310A90DA70D0310250DA8008F
:100D9000260DAB002808A9072B0803182B0FA7075F
:100DA0002908A3022708031C270FA4020630A30763
:100DB0000318A40A230E0F39A900240EA700F03946
:100DC000A904A70629082507A1002608A0002708CE
:100DD0000318270FA007A20120002008803E803EB4
:100DE000031DF42E64302102031C282F200021084B
:100DF000A3002008A400A50120002408803E803E16
:100E0000031D042F64302302031C0D2F9C3020008F
:100E1000A307031CA403A50AFC2E20002308A1009D
:100E20002408A0000F30A5052508F33EA5000730D3
:100E30000318013EA3002508F6002308F7008030C0
:100E40008E31ED2687312000A4002100B0002B2F29
:100E5000FF302100B00020002008803E803E031DAE
:100E6000332F0A3021020318402F20002208031DCF
:100E7000402F210030082000A300FF3A0319762FED
:100E800020002108A3002008A400A50120002408B8
:100E9000803E803E031D4E2F0A302302031C572F35
:100EA000F6302000A307031CA403A50A462F200048
:100EB0002308A1002408A0002508F33EA500073060
:100EC0000318013EA3002508F6002308F700803030
:100ED0008E31ED2687312000A4002100B1002000D2
:100EE00022080319792F21003110792FFF302100BA
:100EF000B10020002108A200F33EA1000730031832
:100F0000013EA0002108F6002008F70080308E3155
:100F1000ED2687312000A2002100B2000800200049
:100F2000A7007708A9007608A8002708CC2720008A
:100F3000AB007708AA002806031DA22F2B0829065C
:100F40000319CB2F03102000270DAA0020002A0828
:100F50002300910020002808230093001513951307
:100F6000151520008B13553023009600AA309600EB
:100F7000951420008B172300151123009518BD2F01
:100F80002000121220002908A800A9012A08A700A1
:100F9000AA0A271CA62F08002000A000A101A20178
:100FA0000310200DA3002000230823009100151337
:100FB0009513151413082000A000A4012008A60012
:100FC000A5012208A000A40120082504A1002408EE
:100FD0002604A2002308A000A30A201CD32F210866
:100FE000F700220808000334B7340D342534B13437
:100FF0006134413437340134213400340034003456
:1010000020008B1322000D082000DE0021000E08B6
:101010002000DF0022008D01D83021008E00031057
:101020002100390D2000E000E10120008E1F1A2868
:101030002000E10A20006008E2006108E00062048C
:101040002100B9000310390D2000E000E10120006B
:101050000E1E2C282000E10A20006008E200610832
:10106000E00062042100B9000310390D2000E00007
:10107000E10120000E1F3E282000E10A2000600848
:10108000E2006108E00062042100B9000310390D9C
:101090002000E000E10120008E1D50282000E10A20
:1010A00020006008E2006108E00062042100B9004D
:1010B00020005E0822008D0020005F0821008E00C5
:1010C00020008B1721003808031DB8030D302100C4
:1010D000350203187A2C08308A007230350703185D
:1010E0008A0A82007F28E928D12842295D2983299C
:1010F000A729CB29D7291B2AB42A5D2BA62B8830F8
:10110000210039052000DE00083A031D8E281B301F
:101110002100B80001302100B5007C2C00302100F6
:10112000390403197C2C7F308731CC27883120008B
:10113000DF007708DE005F0403197C2C33302100C8
:1011400039052000DE00033A031DAA2802302100E1
:10115000B5007C2C2230210039052000DE00023A47
:10116000031DB62803302100B5007C2C113021006E
:1011700039052000DE00013A031DC5280D3021008D
:10118000B80004302100B5007C2C44302100390522
:101190002000DE00403A031D7C2C07302100B50002
:1011A0007C2C0030F6006B30F700003086315A2678
:1011B0008831210030102100B3163315333021005F
:1011C00039052000DE00333A03197C2C2100B501DB
:1011D0007C2C003021003804031D21297F30873109
:1011E000CC2788312000E0007708DE00E1006108AC
:1011F000003003190130DE00E200E301E21BE303EB
:101200006208F6006308F7007F3087318F27893145
:10121000200061080319142922000C100C128C12F2
:101220002000181011101E293C302100AE00AF0123
:101230003C302100AC00AD01200018142100B501A4
:101240007C2C8830210039052000DE00883A031903
:101250007C2CDE012100B41E2F292000DE0A200094
:101260005E08003003190130E100DE005E0C031857
:101270003B292100B412031C3F292100B416210090
:10128000B5017C2C77308731CC2789312000E100F3
:101290007708DE000130F6005E08F700610886314D
:1012A0005A2689312230210039052000DE00223AF9
:1012B00003197C2C2100B5017C2C7E308731CC2792
:1012C00089312000E1007708DE00E2000030F700FD
:1012D00062088E240630200062020318782921005B
:1012E0003808031D78291130B80005302100B500F9
:1012F0001130210039052000DE00113A03197C2C41
:101300002100B5017C2C78308731CC278931200031
:10131000E1007708DE000030F6005E08F7006108A3
:1013200086315A26893121003808031D9C290D3049
:10133000B80006302100B500113021003905200029
:10134000DE00113A03197C2C2100B5017C2C793088
:101350008731CC2789312000E1007708DE0000309A
:10136000F6005E08F700610886315A2689312100AF
:101370003808031DC0290D30B80004302100B50025
:101380001130210039052000DE00113A03197C2CB0
:101390002100B5017C2C0130F700210036088E2495
:1013A0006E302100B80008302100B5007C2C0030E0
:1013B000210038040319E429883021003905200070
:1013C000DE00803A031DE7292100B5017C2C223084
:1013D000210039052000DE00203A031DF9292100F3
:1013E000B60A073036020318B60107302100B500EF
:1013F0007C2C1130210039052000DE00103A031D3D
:101400000D2A2100B60307303602031C092A0630D4
:10141000B60007302100B5007C2C4430210039058E
:101420002000DE00403A031D7C2C2100B70109306A
:101430002100B5007C2C21003316B316331506307D
:101440002100360203184C2A2100371C2E2A853031
:101450002100B000D1302100B100342A61302100D8
:10146000B00019302100B10003102100370C20001A
:10147000DE00F33EDE0007300318013EE1005E08A7
:10148000F6006108F70080308E31ED268A312000A9
:10149000E2002100B200AD2A0730F7002100370832
:1014A0008F311C278A312000DE00E1015E08083EF2
:1014B000DE0061080318610F0E3EE1005E08F600D1
:1014C0006108F70080308E31ED268A312000E2007D
:1014D0002100B0000730F700210037088F311C27AA
:1014E0008A312000DE00E1015E08083EDE0061086E
:1014F0000318610F0E3EE100DE0A0319E10A5E08DF
:10150000F6006108F70080308E31ED268A31200028
:10151000E2002100B1000730F700210037088F31C9
:101520001C278A312000DE00E1015E08083EDE0053
:1015300061080318610F0E3EE1000230DE07031858
:10154000E10A5E08F6006108F70080308E31ED2672
:101550008A312000E2002100B2006E302100B80084
:101560000A302100B5007C2C003021003804031D16
:10157000BC2A2100B5017C2C8830210039052000CF
:10158000DE00803A031DC82A07302100B5007C2CFC
:101590002230210039052000DE00203A031DE92A0F
:1015A0002100B70A0630210036020318DE2A133064
:1015B00021003702031CE52AB701E52A0D3021007E
:1015C0003702031C072BB701072B09302100B50098
:1015D0007C2C1130210039052000DE00103A031D5B
:1015E000272B2100B7030630210036020318002BF9
:1015F000133021003702031C232B1230B700232B9A
:101600000D3021003702031C072B0C30B7007E3051
:101610008731CC278B312000E1007708DE00E20023
:1016200006306202031C232B21003708063A031DF3
:101630001C2BB70AB70A232B21003708073A031DD2
:10164000232BFE30B70709302100B5007C2C443035
:10165000210039052000DE00403A031D7C2C2100CA
:10166000360EF0392000DE0003102100360D200078
:10167000E100DE07210036082000DE0721003708E0
:101680002000DE075E088731CC278B312000E50083
:101690007708E40020005E08F60020006408F700E8
:1016A0006508CE242000E5007708E4006E302100B4
:1016B000B8000B302100B5007C2C0630210036022A
:1016C0000318792B2100371C6F2B0030F600200007
:1016D0006408F700650886315A268B319F2B01304C
:1016E000F60020006408F700650886315A268B3121
:1016F0009F2B0630210037020318882B0130F6009B
:1017000020006408F700650886315A268B319F2B2C
:101710000C30210037020318972B0030F600200010
:101720006408F700650886315A268B319F2B20000C
:1017300064082000DE000030F7005E088E246E3062
:101740002100B8000C302100B5007C2C2100360EA1
:10175000F0392000DE0003102100360D2000E100EA
:10176000DE07210036082000DE07210037082000B0
:10177000DE0721003808031DC02B2100B5017C2C99
:101780008830210039052000E100803A031DCC2B70
:1017900009302100B5007C2C2100B91EE22B20006D
:1017A000E40A0319E50A6508803E7D3E031DDA2B35
:1017B000E9306402031CF82B09302000E407031809
:1017C000E50AF82B2100391E0F2CFF302000E4071A
:1017D000031CE5036508803E7D3E031DF12BE930C7
:1017E0006402031CF82BF7302000E407031CE50318
:1017F00020005E08F60020006408F7006508CE248B
:101800002000E5007708E4001F3028001D02031CBB
:101810000B2CF8309D070B302100B5007C2C443098
:10182000210039052000E100403A031D762C2100FB
:101830003608063A031D682C210037080C3A031DB0
:10184000682C0030F6000030F700783087318F27A1
:101850008C310030F6000030F700793087318F2767
:101860008C3120006508803E803E031D392C0630F7
:1018700064020318682C200064082000E100610E57
:10188000F039E2000310610DE300E207610862072E
:10189000E1008731CC278C312000E3007708E2009B
:1018A000F6006308F700773087318F278C312000EE
:1018B000E10A61088731CC278C312000E2007708EB
:1018C000E1006204031D682C06302000E400E501FD
:1018D00020006408F6006508F70020005E088731E4
:1018E0008F278C3109302100B5007C2CFA3028007C
:1018F0009D007C2C2100B501210035080030031922
:1019000001302000DE00E100610C0318892C210069
:10191000B411031C8D2C2100B41508002000D00048
:101920007708CF0021003316B3163315B3140630F1
:10193000200050020318B52C19302100B000DD3012
:101940002100B10020005008F33ED00007300318FA
:10195000013ED2005008F6005208F70080308E3168
:10196000ED268C312100B200CD2C003020004F0438
:101970000319C42C61302100B00009302100B100EE
:10198000C9302100B200CD2CC9302100B000D130C7
:101990002100B100FF302100B20008002000D70074
:1019A0007708D6007608D800723058020318082D40
:1019B0005808D900133020005902031CE22CED30E6
:1019C000D907DA2C2000591CF62CE730F30003303D
:1019D000F4000030F5000030F6005608F700570814
:1019E00054252000D7007708D6004F2D7830F3001B
:1019F0000530F4007030F500FE30F6002000560887
:101A0000F700570854252000D7007708D6004F2D3F
:101A10008E302000D8070730F70058088F311C2778
:101A20008D312000D900DA015908083ED8000E3067
:101A3000DB005A0803185A0FDB0703305807D90098
:101A4000DA01DA0D5B08DA075908F6005A08F700E0
:101A500080308E31FF268D312000DD007708DC00DC
:101A60000530D8070318DB0A5808F6005B08F700B2
:101A700080308E31FF268D312000DA007708D900C2
:101A8000F3005A08F4005C08F5005D08F6005608FB
:101A9000F700570854252000D7007708D60020000B
:101AA0005608F700570808002000D0007708CF003C
:101AB0007608D2007508D1007408D4007308D300EA
:101AC0005408803ED5005008803E5502031D6A2D03
:101AD0004F0853020318712D20005108F7005208D7
:101AE000872D20005008803ED5005208803E5502C8
:101AF000031D7C2D51084F020318832D200053082D
:101B0000F7005408872D20004F08F7005008080000
:101B10006330F6000E30F70080308E31FF268D31B5
:101B20002100A1007708A0006530A2000E30A300BC
:101B300021002008A4002108A500FF30A007031CF5
:101B4000A103240825040319052E04302207A4004C
:101B5000A501A50D2308A5072408F6002508F70010
:101B600080308E31FF268D312100A7007708A60036
:101B70002208F6002308F70080308E31FF268D31D1
:101B80002100A900A5007708A800A40002302207C0
:101B9000A400A501A50D2308A5072408F600250823
:101BA000F70080308E31FF268D312100A500AB007B
:101BB0007708A400AA0021002608AA002708AB0085
:101BC000FF30A607031CA7032A082B040319FF2DC7
:101BD0002808F6002908F70080308E31ED268D3177
:101BE0002100AA0024088400250885002A08800016
:101BF000A80A0319A90AA40A0319A50ADB2D0630AD
:101C00002100A2070318A30A982D8031422808005A
:101C1000D134A134FF340034003432340034D134B0
:101C2000A1340D3400340034FA340034C934CD34D6
:101C3000FF34CE34FF3432340034C934CD340D3463
:101C4000CE34FF343234003461341134FF34703414
:101C5000FE349034013461341934FF347034FE346E
:101C6000783405346134C934FF3400340034083426
:101C700000348534D134FF3400340034E734033485
:101C8000CD348534FF34003400343C340034D13456
:101C90008534FF34003400343C340034DD341934EE
:101CA000FF3400340034013400341934C1340D34AD
:101CB0000034003401340034DD34D534FF340034D2
:101CC0000034063400340C34003403340034B334AC
:101CD000003401340034FF340734B43400340134A8
:101CE0000034FD3407346B340034023400343B34A8
:101CF0000F346D340034023400343D340F34AC34CE
:101D00000034023400343F340F34AE340034023433
:101D1000003441340F34B5340034013400344234DB
:101D20000F34B63400340134003443340F34B73444
:101D300000340134003444340F34B83400340134F6
:101D4000003445340F34B93400340134003446349F
:101D50000F34BA34003401340034003400341A34FF
:101D6000FE349D34FE34F234FE343334FF346934AF
:101D7000FF349834FF34C334FF34EB34FF34103471
:101D8000003433340034553400347734003498341C
:101D90000034B8340034D9340034FA3400341C34FC
:101DA00001343E3401346234013487340134AF34B9
:101DB0000134D934013407340234393402347034F4
:101DC0000234B0340234FB34023458340334D13496
:101DD000033482340434CA340534003A0319F42E2F
:101DE000803A0319FA2E00347608840077088500BB
:101DF0000008080077088A00760882000800003A88
:101E00000319072F803A03190F2FF70100347608C2
:101E10008400770885001200F700000808008E3162
:101E2000FA26F500F60FF703F70A8E31FA26F400CA
:101E30007508F700740808002000E6007708E7003E
:101E4000E8010830E9002000661C282F6708E80731
:101E500020006608EA0003106A0CE6000310670D14
:101E6000EA00E7006908EA006A03E9006908031D5F
:101E7000232F68080800003400343C3400343C341C
:0E1E80000034003400340034003400340034E8
:020000040001F9
:02000E00D40F0D
:02001000FF3AB5
:00000001FF
