:020000040000FA
:1000000000008D31882DFF348A012000911C412889
:10001000031022000D0D2000BF003F08031D122811
:100020001030BF0021008E0122008D0120003F080A
:10003000103A031928283F08203A03192D283F08B1
:10004000403A031932283F08803A031937283B28E1
:1000500021002D0822008E003B2821002E082200BE
:100060008E003B2821002F0822008E003B28210013
:10007000300822008E0020003F0822008D00200062
:10008000911009002000C001C101FF30C2007F3083
:10009000C300FF30C4007F30C5006A3021009900E2
:1000A0000E308C0022008C0121008D0122008D0178
:1000B00021008E01063023008C0021001E169E17A1
:1000C00023008E0120009813181398121812981507
:1000D00018151814F43025009200243091000B30CC
:1000E0009300053020009C00FA309B002100911401
:1000F000373028009E00FA309D00C03020008B0071
:10010000093021009D002000931D9928883100208E
:100110008031200018189728FF302100B0000330EC
:100120002100AD0059302100AF002100AE002000B9
:1001300093112000111D2D2D20004008C6000F39FD
:10014000031DE62B4208F700430830252000C700B6
:100150007708C6007430AA272000C9007708C800B5
:100160004608CA004708CB0048084A072100A500F6
:1001700020004B082100A600200049080318490A66
:100180000319C4282100A6077E30AA272000C70033
:100190007708C600C800063048020318FD29210070
:1001A000301320004008C6004108C700C801C9013B
:1001B0004908803E803E031DE72800304802031DA9
:1001C000E728E1304702031DE72800304602031C00
:1001D000002A7E30AA272000AD007708AC00AE00D0
:1001E00006302E020318F9297830AA272000AD0026
:1001F0007708AC00AF007930AA272000AD0077085F
:10020000AC00AC0A0319AD0A09302F02031C0A29FD
:100210000830AF0020002E0EF039B00003102E0D74
:10022000B100B0072E083007AE0003102F0DB0004C
:10023000AE072E0AB000AA272000B1007708B00050
:1002400002302E07B200AA272000B3007708B200C0
:1002500031082D02031D2E2930082C02031C5C29B5
:1002600020003208F6003308F70077306D272000B1
:100270002F08083A0319472903302E07B400AA278C
:100280002000B5007708B4003504031D4E29063060
:10029000F6000030F7007E306D27F9292000AC0110
:1002A000AD01AF0A2F08B400B5013408F6003508D7
:1002B000F70078306D27F2297C30AA272000B4009F
:1002C0007708AF0034040319F2292E08AA2720006A
:1002D000AF007708AE002D0EF039B5002C0EB4003B
:1002E0000F39B504B4060310B40DB50D0310B40DE9
:1002F000B50D2030B600B701B801B901BA01200030
:1003000031083502031D862930083402031CA72951
:1003100020003008B4023108031C310FB502320846
:10032000BB003308BC000030BC1BFF30BE00BD006A
:100330003B08B6073C0803183C0FB7073D080318F5
:100340003D0FB8073E0803183E0FB907BF2920002C
:100350002E08BB002F08BC000030BC1BFF30BE00C5
:10036000BD003B08B6073C0803183C0FB7073D0823
:1003700003183D0FB8073E0803183E0FB9072000C9
:10038000BA0A40303A02031C7F29360E0F39B600F4
:10039000370EB700F039B604B706380EB800F0399A
:1003A000B704B806390EB900F039B804B906F03010
:1003B000B919B9040310B91B0314B90CB80CB70C64
:1003C000B60C0310B91B0314B90CB80CB70CB60C5F
:1003D0003608AE003708AF002E08F6002F08F700E9
:1003E00077306D2720002C08F6002D08F7007930B3
:1003F0006D272000C001C101002A2000C001C101F9
:100400002100311D0E2AB11D0E2A61302100AD00E0
:1004100011302100AE00FF302100AF002100B11CDF
:100420001D2A22000C128C123C302100A900AA01C6
:100430003C302100AB00AC01E62B7730AA2720002E
:10044000A7007708A9007330AA272000A800770822
:10045000AB007D30AA272000AA007708AD00AC00D1
:10046000210029082A040319392AFF30A907031C8F
:10047000AA0321002B082C040319422AFF30AB07E2
:10048000031CAC032000AD0122000C1E492A2000F1
:10049000AD0A20002D08003003190130AA00AD007C
:1004A0002D0C0318552A2100B013031C592A2100D2
:1004B000B0172000AD0122008C1E602A2000AD0A7A
:1004C00020002D08003003190130AA00AD002D0CCA
:1004D00003186C2A2100B011031C702A2100B015EA
:1004E00022000C1E9F2A20002708803EAE0021001B
:1004F0002608803E20002E02031D822A21002508A6
:10050000200029020318CE2A20002C0803199F2A54
:100510002B082902AD002808031C280A2702AA007C
:1005200021002808803E2000AE002A08803E2E02CE
:10053000031D9D2A2D0821002702031CCE2A22001C
:100540008C1E2C2B21002608803E2000AE002708A0
:10055000803E2E02031DAF2A290821002502031820
:10056000CE2A20002C0803192C2B2B082907AD00BC
:100570002708AA0028080318280FAA072A08803E7F
:10058000AE0021002808803E20002E02031DCC2A48
:100590002100270820002D0203182C2B7A30AA27CF
:1005A0002000AA007708AD002A0EF0392100AA0029
:1005B00020002D0E2100A9000F39AA04A90603105E
:1005C000A90DAA0D0310A90DAA0D290E0F3920009F
:1005D000AD0021002A0E2000AA00F039AD04AA06C1
:1005E0002D082100A90220002A08031C2A0A031949
:1005F000FB2A2100AA027B30AA272000AA00770844
:10060000AD002A0EF0392100AC0020002D0E210093
:10061000AB000F39AC04AB060310AB0DAC0D0310EF
:10062000AB0DAC0D2B0E0F392000AD0021002C0EB0
:100630002000AA00F039AD04AA062D082100AB0263
:1006400020002A08031C2A0A0319282B2100AC02C7
:1006500022000C128C12E62B22000C1AE62B8C1AAC
:10066000E62B7230AA272000AA007708AD000310FD
:10067000A81B0314A80CAB0C0310A81B0314A80C94
:10068000AB0C2D082907AE002708AF002A08031875
:100690002A0FAF072F08803EB00021002608803EB9
:1006A00020003002031D582B2100250820002E02B7
:1006B0000318952B20002C080319752B2B082902F1
:1006C000AE002808031C280A2702AF0021002808D2
:1006D000803E2000B0002F08803E3002031D732BA7
:1006E0002E0821002702031C952B210029082A042B
:1006F0000319922B2000AE012100B01F812B200096
:10070000AE0A2100290801392000AF00B000AE0672
:100710002E0C03188D2B2100B013031C912B2100EC
:10072000B017E62B22000C16E62B20002D0829021C
:10073000AD002A08031C2A0A2702AA002100260865
:10074000803E2000B1002A08803E3102031DAB2B01
:100750002D08210025020318E62B20002C08031980
:10076000C72B2B08A90728080318280FA707270855
:10077000803EB10021002808803E20003102031D88
:10078000C52B2100270820002902031CE62B21008D
:100790002B082C040319E42B2000A9012100B01D13
:1007A000D32B2000A90A21002B0801392000A70023
:1007B000AB00A906290C0318DF2B2100B011031C84
:1007C000E32B2100B015E62B22008C1620004008F8
:1007D000C6000F30C6054608073A031D0B2D210041
:1007E000301720004408F700450830252000C700D6
:1007F0007708C6007530AA272000C9007708C8000E
:100800004608CA004708CB0048084A072100A7004D
:1008100020004B082100A800200049080318490ABD
:100820000319142C2100A80720004308C600C701A3
:100830004608C800F830480203183B2C093048022B
:10084000031C3B2C7D30AA272000C7007708C60078
:1008500047040319382C4508C600C7014608C800DC
:10086000F830480203183B2C09304802031C3B2C8B
:100870002000C6013E2C01302000C60020004608A2
:10088000C700470C0318462C2100B110031C4A2C4A
:100890002100B1147630AA272000C7007708C600CF
:1008A00047040319BA2C7730AA272000C90077081B
:1008B000C800210025082000CA00210026082000C9
:1008C000CB0048084A02C8004908031C490A4B02E9
:1008D000C9000314C91F0310031C732CC809C909DC
:1008E000C80A0319C90A03142000C71F0310031CF8
:1008F0009C2CC609C709C60A0319C70A4708803EC7
:10090000CC004908803E4C02031D882C4808460252
:100910002000CA01031C4A144A08003003190130A0
:10092000CB00CA004A0C0318972C21003111031C7C
:100930009B2C21003115BA2C20004908803ECC00A8
:100940004708803E4C02031DA72C460848022000A1
:10095000CA01031C4A144A08003003190130C600BA
:10096000CA004A0C0318B62C21003111031CBA2C02
:10097000210031152100B11DF42CB11CCB2C1130FC
:100980002100AD00CB302100AE00FF302100AF00D0
:1009900021003017F42C2000C6012100B11ED22CFA
:1009A0002000C60A20004608003003190130C800A4
:1009B000C600460C0318DE2C2100B010031CE22CEC
:1009C0002100B0142100B11EED2C0130F6002100F1
:1009D0002708F70028083826F42C0130F6002100FB
:1009E0002508F700260838262100B118FC2C3119FB
:1009F000FC2C2000C601FF2C01302000C600200086
:100A00004608C800480C0318072D22000C10031CD0
:100A10000B2D22000C142000C00A0319C10A400843
:100A2000C600461C1F2D4208F7004308FC25200085
:100A3000C3007708C200053021009D002B2D200047
:100A40004408F7004508FC252000C5007708C400CD
:100A5000093021009D002000111164008328080046
:100A60002000A0007708A1002030A200A301A4016B
:100A7000A601210E0F39A500200EA700F039A5040C
:100A8000A7060310A70CA50C3F30A505A701250854
:100A9000A9000310200CA500A7010310A70CA50CAA
:100AA0000310A70CA50C1F302505A100A0012108EB
:100AB000A500250AA1000230F70021088E31ED269D
:100AC00085312000A000A7012008AD3EA0008E3097
:100AD000A10027080318270FA1070230F7002508F7
:100AE0008E31ED2685312000A700A8012708AD3EF4
:100AF000A7008E30A50028080318280FA507A80115
:100B0000200029082802031CA82D2708F600250824
:100B1000F70080308731E32785312000AB0077086C
:100B2000AA00AD002B08AC000030AC1BFF30AE00BB
:100B3000AF002D08A2072C0803182C0FA3072F08BD
:100B400003182F0FA4072E0803182E0FA607CB2D6E
:100B500020002008F6002108F70080308731E327C5
:100B600085312000AB007708AA00AD002B08AC004F
:100B70000030AC1BFF30AE00AF002D08A2072C08E0
:100B800003182C0FA3072F0803182F0FA4072E08F4
:100B900003182E0FA6072000A80A40302802031CC5
:100BA000802D220E0F39A100230EA000F039A104E0
:100BB000A006240EA500F039A004A506260EA70065
:100BC000F039A504A706F030A719A7040310A71B46
:100BD0000314A70CA50CA00CA10C0310A71B031455
:100BE000A70CA50CA00CA10C2108A2002008A300B2
:100BF0002208F700230808002000A0007708A100C1
:100C000021009D18002E1D102000210E0F39A2007A
:100C1000200EA300F039A204A3060310A30CA20C1B
:100C20000310A30CA20C2208A1022308031C230F0B
:100C3000A00221001C082000A200A3012208A40099
:100C4000A60121001B082000A200A3012208A6047F
:100C50002308A4042608A2002408A3002208A10750
:100C600023080318230FA0072108F7002008080015
:100C70002000A0007708A1007608A2000314A01F9E
:100C80000310031C4C2E210030122000A109A009E2
:100C9000A10A0319A00A4E2E2100301600302000B0
:100CA00022040319562E2100B0123015200020080E
:100CB000803E7D3E031D5E2EE8302102031CCA2EBD
:100CC00020002108A3002008A4000310240CA60083
:100CD000230CA5000310240CA700230CA90003106B
:100CE000A70CA90C2908A50727080318270FA60792
:100CF000250E0F39A900260EA700F039A904A70672
:100D00002908A50727080318270FA6072608A90002
:100D1000A7012908A50727080318270FA60703100E
:100D2000A60CA50C0310A60CA50C0310A60CA50C74
:100D30000310250DA900260DA7000310A90DA70D6E
:100D40000310A90DA70D0310250DA800260DAB005B
:100D50002808A9072B0803182B0FA7072908A302A7
:100D60002708031C270FA4020630A3070318A40AB0
:100D7000230E0F39A900240EA700F039A904A706F5
:100D800029082507A1002608A00027080318270F17
:100D9000A007A20120002008803E803E031DD22E25
:100DA00064302102031C062F20002108A300200824
:100DB000A400A50120002408803E803E031DE22EF1
:100DC00064302302031CEB2E9C302000A307031C7D
:100DD000A403A50ADA2E20002308A1002408A000FD
:100DE0000F30A50525080B3EA5008F300318013EE6
:100DF000A3002508F6002308F70080308731D127AB
:100E000087312000A4002100AD00092FFF30210010
:100E1000AD0020002008803E803E031D112F0A30C7
:100E2000210203181E2F20002208031D1E2F21005F
:100E30002D082000A300FF3A0319542F2000210899
:100E4000A3002008A400A50120002408803E803EC5
:100E5000031D2C2F0A302302031C352FF6302000EF
:100E6000A307031CA403A50A242F20002308A10024
:100E70002408A00025080B3EA5008F300318013E72
:100E8000A3002508F6002308F70080308731D1271A
:100E900087312000A4002100AE00200022080319A1
:100EA000572F21002E10572FFF302100AE002000B9
:100EB0002108A2000B3EA1008F300318013EA000C4
:100EC0002108F6002008F70080308731D1278731CC
:100ED0002000A2002100AF0008002000A700770832
:100EE000A9007608A8002708AA272000AB007708E9
:100EF000AA002806031D802F2B0829060319A92FF5
:100F000003102000270DAA0020002A0823009100CA
:100F100020002808230093001513951315152000B1
:100F20008B13553023009600AA30960095142000AC
:100F30008B1723001511230095189B2F20001212E8
:100F400020002908A800A9012A08A700AA0A271C2E
:100F5000842F08002000A000A101A2010310200D91
:100F6000A3002000230823009100151395131514E6
:100F700013082000A000A4012008A600A501220853
:100F8000A000A40120082504A10024082604A20032
:100F90002308A000A30A201CB12F2108F700220873
:100FA0000800003A0319D82F803A0319DE2F0034C5
:100FB00076088400770885000008080077088A0012
:100FC000760882000800003A0319EB2F803A0319D3
:100FD000F32FF701003476088400770885001200AB
:100FE000F700000808008731DE27F500F60FF70349
:100FF000F70A8731DE27F4007508F7007408080047
:1010000020008B1322000D082000DC0021000E08B8
:101010002000DD0022008D01D83021008E00031059
:101020002100360D2000DE00DF0120008E1F1A286F
:101030002000DF0A20005E08E0005F08DE00600498
:101040002100B6000310360D2000DE00DF01200075
:101050000E1E2C282000DF0A20005E08E0005F083A
:10106000DE0060042100B6000310360D2000DE0013
:10107000DF0120000E1F3E282000DF0A20005E084E
:10108000E0005F08DE0060042100B6000310360DAA
:101090002000DE00DF0120008E1D50282000DF0A26
:1010A00020005E08E0005F08DE0060042100B6005A
:1010B00020005C0822008D0020005D0821008E00C9
:1010C00020008B1721003508031DB5030D302100CA
:1010D000320203187A2C88308A00723032070318E3
:1010E0008A0A82007F28E928D12842295D2983299C
:1010F000A729CB29D7291B2AB42A5D2BA62B8830F8
:10110000210036052000DC00083A031D8E281B3024
:101110002100B50001302100B2007C2C00302100FC
:10112000360403197C2C7F308731AA2788312000B0
:10113000DD007708DC005D0403197C2C33302100CE
:1011400036052000DC00033A031DAA2802302100E6
:10115000B2007C2C2230210036052000DC00023A4F
:10116000031DB62803302100B2007C2C1130210071
:1011700036052000DC00013A031DC5280D30210092
:10118000B50004302100B2007C2C4430210036052B
:101190002000DC00403A031D7C2C07302100B20007
:1011A0007C2C0030F6006B30F7000030863138269A
:1011B000883121002D102100B01630153330210068
:1011C00036052000DC00333A03197C2C2100B201E3
:1011D0007C2C003021003504031D21297F3087310C
:1011E000AA2788312000DE007708DC00DF005F08D6
:1011F000003003190130DC00E000E101E01BE103F5
:101200006008F6006108F7007F3087316D2789316B
:1012100020005F080319142922000C100C128C12F4
:101220002000181011101E293C302100AB00AC0129
:101230003C302100A900AA01200018142100B201AD
:101240007C2C8830210036052000DC00883A031908
:101250007C2CDC012100B11E2F292000DC0A20009B
:101260005C08003003190130DF00DC005C0C03185F
:101270003B292100B112031C3F292100B116210096
:10128000B2017C2C77308731AA2789312000DF001A
:101290007708DC000130F6005C08F7005F08863153
:1012A000382689312230210036052000DC00223A20
:1012B00003197C2C2100B2017C2C7E308731AA27B7
:1012C00089312000DF007708DC00E0000030F70003
:1012D00060088E240630200060020318782921005F
:1012E0003508031D78291130B50005302100B20002
:1012F0001130210036052000DC00113A03197C2C46
:101300002100B2017C2C78308731AA278931200056
:10131000DF007708DC000030F6005C08F7005F08AB
:1013200086313826893121003508031D9C290D306E
:10133000B50006302100B200113021003605200032
:10134000DC00113A03197C2C2100B2017C2C79308D
:101350008731AA2789312000DF007708DC000030C0
:10136000F6005C08F7005F088631382689312100D5
:101370003508031DC0290D30B50004302100B2002E
:101380001130210036052000DC00113A03197C2CB5
:101390002100B2017C2C0130F700210033088E249B
:1013A0006E302100B50008302100B2007C2C0030E6
:1013B000210035040319E429883021003605200076
:1013C000DC00803A031DE7292100B2017C2C223089
:1013D000210036052000DC00203A031DF9292100F8
:1013E000B30A073033020318B30107302100B200FB
:1013F0007C2C1130210036052000DC00103A031D42
:101400000D2A2100B30307303302031C092A0630DA
:10141000B30007302100B2007C2C44302100360597
:101420002000DC00403A031D7C2C2100B40109306F
:101430002100B2007C2C21003016B0163015063089
:101440002100330203184C2A2100341C2E2A853037
:101450002100AD00D1302100AE00342A61302100DE
:10146000AD0019302100AE0003102100340C200023
:10147000DC000B3EDC008F300318013EDF005C080F
:10148000F6005F08F70080308731D1278A312000CD
:10149000E0002100AF00AD2A0730F700210034083A
:1014A0008E31ED268A312000DC00DF015C08083E29
:1014B000DC005F0803185F0F8E3EDF005C08F6005B
:1014C0005F08F70080308731D1278A312000E000A3
:1014D0002100AD000730F700210034088E31ED26E1
:1014E0008A312000DC00DF015C08083EDC005F0878
:1014F00003185F0F8E3EDF00DC0A0319DF0A5C0869
:10150000F6005F08F70080308731D1278A3120004C
:10151000E0002100AE000730F700210034088E31D2
:10152000ED268A312000DC00DF015C08083EDC008B
:101530005F0803185F0F8E3EDF000230DC070318E0
:10154000DF0A5C08F6005F08F70080308731D1279A
:101550008A312000E0002100AF006E302100B5008C
:101560000A302100B2007C2C003021003504031D1C
:10157000BC2A2100B2017C2C8830210036052000D5
:10158000DC00803A031DC82A07302100B2007C2C01
:101590002230210036052000DC00203A031DE92A14
:1015A0002100B40A0630210033020318DE2A13306A
:1015B00021003402031CE52AB401E52A0D30210084
:1015C0003402031C072BB401072B09302100B200A1
:1015D0007C2C1130210036052000DC00103A031D60
:1015E000272B2100B4030630210033020318002BFF
:1015F000133021003402031C232B1230B400232BA0
:101600000D3021003402031C072B0C30B4007E3057
:101610008731AA278B312000DF007708DC00E0004B
:1016200006306002031C232B21003408063A031DF8
:101630001C2BB40AB40A232B21003408073A031DDB
:10164000232BFE30B40709302100B2007C2C44303B
:10165000210036052000DC00403A031D7C2C2100CF
:10166000330EF0392000DC0003102100330D200080
:10167000DF00DC07210033082000DC0721003408EC
:101680002000DC075C088731AA278B312000E300AB
:101690007708E20020005C08F60020006208F700EE
:1016A0006308CE242000E3007708E2006E302100BA
:1016B000B5000B302100B2007C2C06302100330233
:1016C0000318792B2100341C6F2B0030F60020000A
:1016D0006208F7006308863138268B319F2B013072
:1016E000F60020006208F7006308863138268B3147
:1016F0009F2B0630210034020318882B0130F6009E
:1017000020006208F7006308863138268B319F2B52
:101710000C30210034020318972B0030F600200013
:101720006208F7006308863138268B319F2B200032
:1017300062082000DC000030F7005C088E246E3068
:101740002100B5000C302100B2007C2C2100330EAA
:10175000F0392000DC0003102100330D2000DF00F1
:10176000DC07210033082000DC07210034082000BA
:10177000DC0721003508031DC02B2100B2017C2CA1
:101780008830210036052000DF00803A031DCC2B75
:1017900009302100B2007C2C2100B61EE22B200073
:1017A000E20A0319E30A6308803E7D3E031DDA2B3B
:1017B000E9306202031CF82B09302000E20703180D
:1017C000E30AF82B2100361E0F2CFF302000E20721
:1017D000031CE3036308803E7D3E031DF12BE930CB
:1017E0006202031CF82BF7302000E207031CE3031E
:1017F00020005C08F60020006208F7006308CE2491
:101800002000E3007708E2001F3028001D02031CBF
:101810000B2CF8309D070B302100B2007C2C44309B
:10182000210036052000DF00403A031D762C210000
:101830003308063A031D682C210034080C3A031DB6
:10184000682C0030F6000030F700783087316D27C3
:101850008C310030F6000030F700793087316D2789
:101860008C3120006308803E803E031D392C0630F9
:1018700062020318682C200062082000DF005F0E5F
:10188000F039E00003105F0DE100E0075F0860073A
:10189000DF008731AA278C312000E1007708E000C3
:1018A000F6006108F700773087316D278C31200012
:1018B000DF0A5F088731AA278C312000E000770813
:1018C000DF006004031D682C06302000E200E30105
:1018D00020006208F6006308F70020005C088731EA
:1018E0006D278C3109302100B2007C2CFA302800A1
:1018F0009D007C2C2100B201210032080030031928
:1019000001302000DC00DF005F0C0318892C21006F
:10191000B111031C8D2C2100B11508002000CE0050
:101920007708CD0021003016B0163015B0140630FF
:1019300020004E020318B52C19302100AD00DD3017
:101940002100AE0020004E080B3ECE008F30031861
:10195000013ED0004E08F6005008F7008030873175
:10196000D1278C312100AF00CD2C003020004D0458
:101970000319C42C61302100AD0009302100AE00F4
:10198000C9302100AF00CD2CC9302100AD00D130CD
:101990002100AE00FF302100AF0008002000D5007C
:1019A0007708D4007608D600723056020318082D46
:1019B0005608D700133020005702031CE22CED30EC
:1019C000D707DA2C2000571CF62CE730F300033041
:1019D000F4000030F5000030F6005408F700550818
:1019E00054252000D5007708D4004F2DC430F300D3
:1019F0000930F4007030F500FE30F6002000540885
:101A0000F700550854252000D5007708D4004F2D45
:101A10008E302000D6070730F70056088E31ED26AD
:101A20008D312000D700D8015708083ED6008E30EF
:101A3000D90058080318580FD90703305607D700A4
:101A4000D801D80D5908D8075708F6005808F700EC
:101A500080308731E3278D312000DB007708DA0002
:101A60000530D6070318D90A5608F6005908F700BA
:101A700080308731E3278D312000D8007708D700E8
:101A8000F3005808F4005A08F5005B08F600540803
:101A9000F700550854252000D5007708D400200011
:101AA0005408F700550808002000CE007708CD0044
:101AB0007608D0007508CF007408D2007308D100F2
:101AC0005208803ED3004E08803E5302031D6A2D0B
:101AD0004D0851020318712D20004F08F7005008DF
:101AE000872D20004E08803ED3005008803E5302D0
:101AF000031D7C2D4F084D020318832D2000510833
:101B0000F7005208872D20004D08F7004E08080006
:101B10006330F6008E30F70080308731E3278D3157
:101B20002000E5007708E4006530E6008E30E7002D
:101B300020006408E8006508E900FF30E407031CA2
:101B4000E503680869040319052E04306607E800F8
:101B5000E901E90D6708E9076808F6006908F70078
:101B600080308731E3278D312000EB007708EA00D1
:101B70006608F6006708F70080308731E3278D316B
:101B80002000ED00E9007708EC00E800023066076D
:101B9000E800E901E90D6708E9076808F600690847
:101BA000F70080308731E3278D312000E900EF0016
:101BB0007708E800EE0020006A08EE006B08EF00EE
:101BC000FF30EA07031CEB036E086F040319FF2DB7
:101BD0006C08F6006D08F70080308731D1278D3111
:101BE0002000EE0068088400690885006E08800007
:101BF000EC0A0319ED0AE80A0319E90ADB2D06309D
:101C00002000E6070318E70A982D803142280800D3
:101C1000D134A134FF340034003464340034D1347E
:101C2000A1340D3400340034F4340134C934CD34DB
:101C3000FF349C34FF3464340034C934CD340D3463
:101C40009C34FF346434003461341134FF34E034A4
:101C5000FC342034033461341934FF347034FE34DE
:101C6000C43409346134C934FF34003400340834D6
:101C700000348534D134FF3400340034E734033485
:101C8000CD348534FF34003400343C340034D13456
:101C90008534FF34003400343C340034DD341934EE
:101CA000FF3400340034013400341934C1340D34AD
:101CB0000034003401340034DD34D534FF340034D2
:101CC0000034063400340C34003403340034B034AF
:101CD0000034013400341D340F34B1340034013485
:101CE000003415340F34A534003402340034173472
:101CF0000F34A73400340234003419340F34A934BB
:101D00000034023400341B340F34AB34003402345A
:101D100000341E340F34B2340034013400341F3424
:101D20000F34B33400340134003420340F34B4346D
:101D300000340134003421340F34B534003401341C
:101D4000003422340F34B6340034013400342334E8
:101D50000F34B73400340134003400340034D53447
:101D6000FD34C134FE345934FF34CF34FF343034C1
:101D7000003486340034D33400341A3401345C34F3
:101D800001349C340134DA340134163402345134D1
:101D900002348C340234C7340234023403343F3406
:101DA00003347D340334BD34033401340434483403
:101DB000043494340434E53404343F340534A43416
:101DC0000534173406349E340634443407341E3444
:101DD00008345D340934AB340B342100A00077089B
:101DE000A100A2010830A3002100201CF92E210827
:101DF000A20721002008A4000310240CA000031057
:101E0000210DA400A1002303A400A3002408031DA6
:101E1000F42E220808000334B7340D342534B134CD
:101E20006134413437340134213400340034003417
:101E300000343C3400343C3400340034003400348A
:081E40000034003400340034CA
:020000040001F9
:02000E00D40F0D
:02001000FF3AB5
:00000001FF
